{
  "transactions": [
    {
      "hash": "0x5bc6f258aa912a444faa5a22175651b09088ffd96ae60b51d16ba86632c66208",
      "transactionType": "CALL",
      "contractName": null,
      "contractAddress": "0x0c34ff558b55b70a61c3951fd9197f05271a827e",
      "function": "approve(address,uint256)",
      "arguments": [
        "0x000000000022D473030F116dDEE9F6B43aC78BA3",
        "115792089237316195423570985008687907853269984665640564039457584007913129639935"
      ],
      "transaction": {
        "from": "0xeeb3e0999d01f0d1ed465513e414725a357f6ae4",
        "to": "0x0c34ff558b55b70a61c3951fd9197f05271a827e",
        "gas": "0xfa9c",
        "value": "0x0",
        "input": "0x095ea7b3000000000000000000000000000000000022d473030f116ddee9f6b43ac78ba3ffffffffffffffffffffffffffffffffffffffffffffffffffffffffffffffff",
        "nonce": "0x16",
        "chainId": "0x515"
      },
      "additionalContracts": [],
      "isFixedGasLimit": false
    },
    {
      "hash": "0xa8f6105de76892576a28799b336f0971d11e1cd74f9644a9081d75fe160bd4ff",
      "transactionType": "CALL",
      "contractName": null,
      "contractAddress": "0x4781a670e8524f229cf0f17783d7a1adea736925",
      "function": "approve(address,uint256)",
      "arguments": [
        "0x000000000022D473030F116dDEE9F6B43aC78BA3",
        "115792089237316195423570985008687907853269984665640564039457584007913129639935"
      ],
      "transaction": {
        "from": "0xeeb3e0999d01f0d1ed465513e414725a357f6ae4",
        "to": "0x4781a670e8524f229cf0f17783d7a1adea736925",
        "gas": "0xfa9c",
        "value": "0x0",
        "input": "0x095ea7b3000000000000000000000000000000000022d473030f116ddee9f6b43ac78ba3ffffffffffffffffffffffffffffffffffffffffffffffffffffffffffffffff",
        "nonce": "0x17",
        "chainId": "0x515"
      },
      "additionalContracts": [],
      "isFixedGasLimit": false
    },
    {
      "hash": "0x3bb462752f0f0171b819146cdb84de1624933f22f2623d622de30009ba5169bb",
      "transactionType": "CALL",
      "contractName": null,
      "contractAddress": "0x000000000022d473030f116ddee9f6b43ac78ba3",
      "function": "approve(address,address,uint160,uint48)",
      "arguments": [
        "0x0c34ff558b55B70a61c3951FD9197f05271A827e",
        "0xf969Aee60879C54bAAed9F3eD26147Db216Fd664",
        "1461501637330902918203684832716283019655932542975",
        "281474976710655"
      ],
      "transaction": {
        "from": "0xeeb3e0999d01f0d1ed465513e414725a357f6ae4",
        "to": "0x000000000022d473030f116ddee9f6b43ac78ba3",
        "gas": "0x1112d",
        "value": "0x0",
        "input": "0x87517c450000000000000000000000000c34ff558b55b70a61c3951fd9197f05271a827e000000000000000000000000f969aee60879c54baaed9f3ed26147db216fd664000000000000000000000000ffffffffffffffffffffffffffffffffffffffff0000000000000000000000000000000000000000000000000000ffffffffffff",
        "nonce": "0x18",
        "chainId": "0x515"
      },
      "additionalContracts": [],
      "isFixedGasLimit": false
    },
    {
      "hash": "0x4d39d5dbd5cdbdead2306d85cdfda4f4cf9cb018fdb904be5d372c68f72a178a",
      "transactionType": "CALL",
      "contractName": null,
      "contractAddress": "0x000000000022d473030f116ddee9f6b43ac78ba3",
      "function": "approve(address,address,uint160,uint48)",
      "arguments": [
        "0x4781A670E8524f229CF0f17783D7A1adEA736925",
        "0xf969Aee60879C54bAAed9F3eD26147Db216Fd664",
        "1461501637330902918203684832716283019655932542975",
        "281474976710655"
      ],
      "transaction": {
        "from": "0xeeb3e0999d01f0d1ed465513e414725a357f6ae4",
        "to": "0x000000000022d473030f116ddee9f6b43ac78ba3",
        "gas": "0x1112d",
        "value": "0x0",
        "input": "0x87517c450000000000000000000000004781a670e8524f229cf0f17783d7a1adea736925000000000000000000000000f969aee60879c54baaed9f3ed26147db216fd664000000000000000000000000ffffffffffffffffffffffffffffffffffffffff0000000000000000000000000000000000000000000000000000ffffffffffff",
        "nonce": "0x19",
        "chainId": "0x515"
      },
      "additionalContracts": [],
      "isFixedGasLimit": false
    },
    {
      "hash": "0xd89926036bcd27661402b750af5870a77a7a3e5bc52054c5b582bd333687d203",
      "transactionType": "CALL",
      "contractName": null,
      "contractAddress": "0xdf634c4d50566852951b18bc3fa96f05b907ffff",
      "function": "preparePool((address,address,uint24,int24,address),uint8,address)",
      "arguments": [
        "(0x0c34ff558b55B70a61c3951FD9197f05271A827e, 0x4781A670E8524f229CF0f17783D7A1adEA736925, 8388608, 60, 0xDF634c4D50566852951b18bc3fa96f05b907fFff)",
        "0",
        "0x0000000000000000000000000000000000000000"
      ],
      "transaction": {
        "from": "0xeeb3e0999d01f0d1ed465513e414725a357f6ae4",
        "to": "0xdf634c4d50566852951b18bc3fa96f05b907ffff",
        "gas": "0x11843",
        "value": "0x0",
        "input": "0x485227eb0000000000000000000000000c34ff558b55b70a61c3951fd9197f05271a827e0000000000000000000000004781a670e8524f229cf0f17783d7a1adea7369250000000000000000000000000000000000000000000000000000000000800000000000000000000000000000000000000000000000000000000000000000003c000000000000000000000000df634c4d50566852951b18bc3fa96f05b907ffff00000000000000000000000000000000000000000000000000000000000000000000000000000000000000000000000000000000000000000000000000000000",
        "nonce": "0x1a",
        "chainId": "0x515"
      },
      "additionalContracts": [],
      "isFixedGasLimit": false
    },
    {
      "hash": "0x1522abef935a931ef2fa9500177c90fe217df2c74149a6cd44d3b9ba9d3ffc62",
      "transactionType": "CALL",
      "contractName": null,
      "contractAddress": "0xf969aee60879c54baaed9f3ed26147db216fd664",
      "function": "multicall(bytes[])",
      "arguments": [
        "[0xf70204050000000000000000000000000c34ff558b55b70a61c3951fd9197f05271a827e0000000000000000000000004781a670e8524f229cf0f17783d7a1adea7369250000000000000000000000000000000000000000000000000000000000800000000000000000000000000000000000000000000000000000000000000000003c000000000000000000000000df634c4d50566852951b18bc3fa96f05b907ffff0000000000000000000000000000000000000001000000000000000000000000, 0xdd46508f00000000000000000000000000000000000000000000000000000000000000400000000000000000000000000000000000000000000000000000000069b9ef0a0000000000000000000000000000000000000000000000000000000000000300000000000000000000000000000000000000000000000000000000000000004000000000000000000000000000000000000000000000000000000000000000800000000000000000000000000000000000000000000000000000000000000002020d00000000000000000000000000000000000000000000000000000000000000000000000000000000000000000000000000000000000000000000000000020000000000000000000000000000000000000000000000000000000000000040000000000000000000000000000000000000000000000000000000000000020000000000000000000000000000000000000000000000000000000000000001a00000000000000000000000000c34ff558b55b70a61c3951fd9197f05271a827e0000000000000000000000004781a670e8524f229cf0f17783d7a1adea7369250000000000000000000000000000000000000000000000000000000000800000000000000000000000000000000000000000000000000000000000000000003c000000000000000000000000df634c4d50566852951b18bc3fa96f05b907fffffffffffffffffffffffffffffffffffffffffffffffffffffffffffffff2764c00000000000000000000000000000000000000000000000000000000000d89b4000000000000000000000000000000000000000000000a968163f0a57b40000000000000000000000000000000000000ffffffffffffffffffffffffffffffff00000000000000000000000000000000ffffffffffffffffffffffffffffffff000000000000000000000000eeb3e0999d01f0d1ed465513e414725a357f6ae40000000000000000000000000000000000000000000000000000000000000180000000000000000000000000000000000000000000000000000000000000000000000000000000000000000000000000000000000000000000000000000000400000000000000000000000000c34ff558b55b70a61c3951fd9197f05271a827e0000000000000000000000004781a670e8524f229cf0f17783d7a1adea736925]"
      ],
      "transaction": {
        "from": "0xeeb3e0999d01f0d1ed465513e414725a357f6ae4",
        "to": "0xf969aee60879c54baaed9f3ed26147db216fd664",
        "gas": "0xab3b5",
        "value": "0x0",
        "input": "0xac9650d8000000000000000000000000000000000000000000000000000000000000002000000000000000000000000000000000000000000000000000000000000000020000000000000000000000000000000000000000000000000000000000000040000000000000000000000000000000000000000000000000000000000000014000000000000000000000000000000000000000000000000000000000000000c4f70204050000000000000000000000000c34ff558b55b70a61c3951fd9197f05271a827e0000000000000000000000004781a670e8524f229cf0f17783d7a1adea7369250000000000000000000000000000000000000000000000000000000000800000000000000000000000000000000000000000000000000000000000000000003c000000000000000000000000df634c4d50566852951b18bc3fa96f05b907ffff0000000000000000000000000000000000000001000000000000000000000000000000000000000000000000000000000000000000000000000000000000000000000000000000000000000000000000000000000000000000000364dd46508f00000000000000000000000000000000000000000000000000000000000000400000000000000000000000000000000000000000000000000000000069b9ef0a0000000000000000000000000000000000000000000000000000000000000300000000000000000000000000000000000000000000000000000000000000004000000000000000000000000000000000000000000000000000000000000000800000000000000000000000000000000000000000000000000000000000000002020d00000000000000000000000000000000000000000000000000000000000000000000000000000000000000000000000000000000000000000000000000020000000000000000000000000000000000000000000000000000000000000040000000000000000000000000000000000000000000000000000000000000020000000000000000000000000000000000000000000000000000000000000001a00000000000000000000000000c34ff558b55b70a61c3951fd9197f05271a827e0000000000000000000000004781a670e8524f229cf0f17783d7a1adea7369250000000000000000000000000000000000000000000000000000000000800000000000000000000000000000000000000000000000000000000000000000003c000000000000000000000000df634c4d50566852951b18bc3fa96f05b907fffffffffffffffffffffffffffffffffffffffffffffffffffffffffffffff2764c00000000000000000000000000000000000000000000000000000000000d89b4000000000000000000000000000000000000000000000a968163f0a57b40000000000000000000000000000000000000ffffffffffffffffffffffffffffffff00000000000000000000000000000000ffffffffffffffffffffffffffffffff000000000000000000000000eeb3e0999d01f0d1ed465513e414725a357f6ae40000000000000000000000000000000000000000000000000000000000000180000000000000000000000000000000000000000000000000000000000000000000000000000000000000000000000000000000000000000000000000000000400000000000000000000000000c34ff558b55b70a61c3951fd9197f05271a827e0000000000000000000000004781a670e8524f229cf0f17783d7a1adea73692500000000000000000000000000000000000000000000000000000000",
        "nonce": "0x1b",
        "chainId": "0x515"
      },
      "additionalContracts": [],
      "isFixedGasLimit": false
    }
  ],
  "receipts": [
    {
      "status": "0x1",
      "cumulativeGasUsed": "0x77ff2",
      "logs": [
        {
          "address": "0x0c34ff558b55b70a61c3951fd9197f05271a827e",
          "topics": [
            "0x8c5be1e5ebec7d5bd14f71427d1e84f3dd0314c0f7b2291e5b200ac8c7c3b925",
            "0x000000000000000000000000eeb3e0999d01f0d1ed465513e414725a357f6ae4",
            "0x000000000000000000000000000000000022d473030f116ddee9f6b43ac78ba3"
          ],
          "data": "0xffffffffffffffffffffffffffffffffffffffffffffffffffffffffffffffff",
          "blockHash": "0x09e53382dbd3051e53e59e8931a80f64dd17f0db7061badbdd123b2d6429c179",
          "blockNumber": "0x2cc3f79",
          "blockTimestamp": "0x69b9ecc5",
          "transactionHash": "0xd89926036bcd27661402b750af5870a77a7a3e5bc52054c5b582bd333687d203",
          "transactionIndex": "0x6",
          "logIndex": "0x4",
          "removed": false
        }
      ],
      "logsBloom": "0x00000000000000000000000000000000000000000000000000000000000000000000000000000000000000800000000000000000800000000000000000200020000000000000004000004000000000000000000000000800000000000000000000000000000000000000000000000080000000000000000000000000000000000000000000000000000000000000000000000000000000000000000000000000020000000000000000000000000000000000000000000000000000000000000000000100000000000000000000000000000000000000000000000400000000000010000000000000000000000000000000000000000000000000000000000000",
      "type": "0x2",
      "transactionHash": "0xd89926036bcd27661402b750af5870a77a7a3e5bc52054c5b582bd333687d203",
      "transactionIndex": "0x6",
      "blockHash": "0x09e53382dbd3051e53e59e8931a80f64dd17f0db7061badbdd123b2d6429c179",
      "blockNumber": "0x2cc3f79",
      "gasUsed": "0xb570",
      "effectiveGasPrice": "0x7a121",
      "blobGasUsed": "0x9c40",
      "from": "0xeeb3e0999d01f0d1ed465513e414725a357f6ae4",
      "to": "0x0c34ff558b55b70a61c3951fd9197f05271a827e",
      "contractAddress": null,
      "daFootprintGasScalar": "0x190",
      "l1BaseFeeScalar": "0x7d0",
      "l1BlobBaseFee": "0x1",
      "l1BlobBaseFeeScalar": "0xdbba0",
      "l1Fee": "0x73",
      "l1GasPrice": "0x8",
      "l1GasUsed": "0x640"
    },
    {
      "status": "0x1",
      "cumulativeGasUsed": "0x83562",
      "logs": [
        {
          "address": "0x4781a670e8524f229cf0f17783d7a1adea736925",
          "topics": [
            "0x8c5be1e5ebec7d5bd14f71427d1e84f3dd0314c0f7b2291e5b200ac8c7c3b925",
            "0x000000000000000000000000eeb3e0999d01f0d1ed465513e414725a357f6ae4",
            "0x000000000000000000000000000000000022d473030f116ddee9f6b43ac78ba3"
          ],
          "data": "0xffffffffffffffffffffffffffffffffffffffffffffffffffffffffffffffff",
          "blockHash": "0x09e53382dbd3051e53e59e8931a80f64dd17f0db7061badbdd123b2d6429c179",
          "blockNumber": "0x2cc3f79",
          "blockTimestamp": "0x69b9ecc5",
          "transactionHash": "0x5bc6f258aa912a444faa5a22175651b09088ffd96ae60b51d16ba86632c66208",
          "transactionIndex": "0x7",
          "logIndex": "0x5",
          "removed": false
        }
      ],
      "logsBloom": "0x00000000000000000000000000000000000000000000000000000000000000000000000000000000000000000000000000000000800000000000000000200020000000000000000000004000000000000000000000000800000000000000000000000000000000000000000000000080000000000000000000000000000000000000000000000000000000000000000000000000000000000000000000000000020000000000000000000000000000000000000000200000000000000010000000000100000000000000000000000000000000000000000000000000000000000010040000000000000000000000000000000000000000000000000000000000",
      "type": "0x2",
      "transactionHash": "0x5bc6f258aa912a444faa5a22175651b09088ffd96ae60b51d16ba86632c66208",
      "transactionIndex": "0x7",
      "blockHash": "0x09e53382dbd3051e53e59e8931a80f64dd17f0db7061badbdd123b2d6429c179",
      "blockNumber": "0x2cc3f79",
      "gasUsed": "0xb570",
      "effectiveGasPrice": "0x7a121",
      "blobGasUsed": "0x9c40",
      "from": "0xeeb3e0999d01f0d1ed465513e414725a357f6ae4",
      "to": "0x4781a670e8524f229cf0f17783d7a1adea736925",
      "contractAddress": null,
      "daFootprintGasScalar": "0x190",
      "l1BaseFeeScalar": "0x7d0",
      "l1BlobBaseFee": "0x1",
      "l1BlobBaseFeeScalar": "0xdbba0",
      "l1Fee": "0x73",
      "l1GasPrice": "0x8",
      "l1GasUsed": "0x640"
    },
    {
      "status": "0x1",
      "cumulativeGasUsed": "0x8f02c",
      "logs": [
        {
          "address": "0x000000000022d473030f116ddee9f6b43ac78ba3",
          "topics": [
            "0xda9fa7c1b00402c17d0161b249b1ab8bbec047c5a52207b9c112deffd817036b",
            "0x000000000000000000000000eeb3e0999d01f0d1ed465513e414725a357f6ae4",
            "0x0000000000000000000000000c34ff558b55b70a61c3951fd9197f05271a827e",
            "0x000000000000000000000000f969aee60879c54baaed9f3ed26147db216fd664"
          ],
          "data": "0x000000000000000000000000ffffffffffffffffffffffffffffffffffffffff0000000000000000000000000000000000000000000000000000ffffffffffff",
          "blockHash": "0x09e53382dbd3051e53e59e8931a80f64dd17f0db7061badbdd123b2d6429c179",
          "blockNumber": "0x2cc3f79",
          "blockTimestamp": "0x69b9ecc5",
          "transactionHash": "0x3bb462752f0f0171b819146cdb84de1624933f22f2623d622de30009ba5169bb",
          "transactionIndex": "0x8",
          "logIndex": "0x6",
          "removed": false
        }
      ],
      "logsBloom": "0x00010000000000000000000000000000000000000000000000000000000000000000000000000000000000000000000000000000000000000000000000080020000000000000000004000000000000000000000000000000000000001000000000000000000000000000000000000080000000000040000000000000000000000020000000000000000000002000000000000000000000000000000000000000000000000000000000000000000000000000000000000000000000080000000000000100000000000000000000000000000000000000000040000000000000000000000000000000000000000000000000000000000000001000000000002400",
      "type": "0x2",
      "transactionHash": "0x3bb462752f0f0171b819146cdb84de1624933f22f2623d622de30009ba5169bb",
      "transactionIndex": "0x8",
      "blockHash": "0x09e53382dbd3051e53e59e8931a80f64dd17f0db7061badbdd123b2d6429c179",
      "blockNumber": "0x2cc3f79",
      "gasUsed": "0xbaca",
      "effectiveGasPrice": "0x7a121",
      "blobGasUsed": "0xa8c0",
      "from": "0xeeb3e0999d01f0d1ed465513e414725a357f6ae4",
      "to": "0x000000000022d473030f116ddee9f6b43ac78ba3",
      "contractAddress": null,
      "daFootprintGasScalar": "0x190",
      "l1BaseFeeScalar": "0x7d0",
      "l1BlobBaseFee": "0x1",
      "l1BlobBaseFeeScalar": "0xdbba0",
      "l1Fee": "0x7d",
      "l1GasPrice": "0x8",
      "l1GasUsed": "0x6cd"
    },
    {
      "status": "0x1",
      "cumulativeGasUsed": "0x9aaf6",
      "logs": [
        {
          "address": "0x000000000022d473030f116ddee9f6b43ac78ba3",
          "topics": [
            "0xda9fa7c1b00402c17d0161b249b1ab8bbec047c5a52207b9c112deffd817036b",
            "0x000000000000000000000000eeb3e0999d01f0d1ed465513e414725a357f6ae4",
            "0x0000000000000000000000004781a670e8524f229cf0f17783d7a1adea736925",
            "0x000000000000000000000000f969aee60879c54baaed9f3ed26147db216fd664"
          ],
          "data": "0x000000000000000000000000ffffffffffffffffffffffffffffffffffffffff0000000000000000000000000000000000000000000000000000ffffffffffff",
          "blockHash": "0x09e53382dbd3051e53e59e8931a80f64dd17f0db7061badbdd123b2d6429c179",
          "blockNumber": "0x2cc3f79",
          "blockTimestamp": "0x69b9ecc5",
          "transactionHash": "0x4d39d5dbd5cdbdead2306d85cdfda4f4cf9cb018fdb904be5d372c68f72a178a",
          "transactionIndex": "0x9",
          "logIndex": "0x7",
          "removed": false
        }
      ],
      "logsBloom": "0x00010000000000000000000000001000000000000000000000000000000000000000000000000000000000000000000000000000000000000000000000080020000000000000000000000000000000000000000000000000000000001000000000000000000000000000000000000080000000000040000000000000000000000020000000000000000000000000000000000000000000000000000000000000000000000000000200000000000000000000000000002000000000080000000000000100000000000000000000000000000000000000000040000000000000000000000000000000000000000000000000000000000000000000000000002400",
      "type": "0x2",
      "transactionHash": "0x4d39d5dbd5cdbdead2306d85cdfda4f4cf9cb018fdb904be5d372c68f72a178a",
      "transactionIndex": "0x9",
      "blockHash": "0x09e53382dbd3051e53e59e8931a80f64dd17f0db7061badbdd123b2d6429c179",
      "blockNumber": "0x2cc3f79",
      "gasUsed": "0xbaca",
      "effectiveGasPrice": "0x7a121",
      "blobGasUsed": "0xa8c0",
      "from": "0xeeb3e0999d01f0d1ed465513e414725a357f6ae4",
      "to": "0x000000000022d473030f116ddee9f6b43ac78ba3",
      "contractAddress": null,
      "daFootprintGasScalar": "0x190",
      "l1BaseFeeScalar": "0x7d0",
      "l1BlobBaseFee": "0x1",
      "l1BlobBaseFeeScalar": "0xdbba0",
      "l1Fee": "0x7d",
      "l1GasPrice": "0x8",
      "l1GasUsed": "0x6cd"
    },
    {
      "status": "0x1",
      "cumulativeGasUsed": "0xa6a98",
      "logs": [],
      "logsBloom": "0x00000000000000000000000000000000000000000000000000000000000000000000000000000000000000000000000000000000000000000000000000000000000000000000000000000000000000000000000000000000000000000000000000000000000000000000000000000000000000000000000000000000000000000000000000000000000000000000000000000000000000000000000000000000000000000000000000000000000000000000000000000000000000000000000000000000000000000000000000000000000000000000000000000000000000000000000000000000000000000000000000000000000000000000000000000000",
      "type": "0x2",
      "transactionHash": "0x1522abef935a931ef2fa9500177c90fe217df2c74149a6cd44d3b9ba9d3ffc62",
      "transactionIndex": "0xa",
      "blockHash": "0x09e53382dbd3051e53e59e8931a80f64dd17f0db7061badbdd123b2d6429c179",
      "blockNumber": "0x2cc3f79",
      "gasUsed": "0xbfa2",
      "effectiveGasPrice": "0x7a121",
      "blobGasUsed": "0xb9f0",
      "from": "0xeeb3e0999d01f0d1ed465513e414725a357f6ae4",
      "to": "0xdf634c4d50566852951b18bc3fa96f05b907ffff",
      "contractAddress": null,
      "daFootprintGasScalar": "0x190",
      "l1BaseFeeScalar": "0x7d0",
      "l1BlobBaseFee": "0x1",
      "l1BlobBaseFeeScalar": "0xdbba0",
      "l1Fee": "0x8a",
      "l1GasPrice": "0x8",
      "l1GasUsed": "0x77b"
    },
    {
      "status": "0x1",
      "cumulativeGasUsed": "0x122a18",
      "logs": [
        {
          "address": "0xdf634c4d50566852951b18bc3fa96f05b907ffff",
          "topics": [
            "0xd8b724ce3a95060bbd95c6ebf6da638aedc05ed9b2ba2933c871780244ee2bac",
            "0x354bf0c82a04a4b045b7dec1b7ebf82999e937fe1c3283a1214b70e322b35dd7",
            "0x000000000000000000000000eeb3e0999d01f0d1ed465513e414725a357f6ae4"
          ],
          "data": "0x00000000000000000000000000000000000000000000000000000000000000000000000000000000000000000000000000000000000000000000000000000000",
          "blockHash": "0x09e53382dbd3051e53e59e8931a80f64dd17f0db7061badbdd123b2d6429c179",
          "blockNumber": "0x2cc3f79",
          "blockTimestamp": "0x69b9ecc5",
          "transactionHash": "0xa8f6105de76892576a28799b336f0971d11e1cd74f9644a9081d75fe160bd4ff",
          "transactionIndex": "0xb",
          "logIndex": "0x8",
          "removed": false
        },
        {
          "address": "0x00b036b58a818b1bc34d502d3fe730db729e62ac",
          "topics": [
            "0xdd466e674ea557f56295e2d0218a125ea4b4f0f6f3307b95f85e6110838d6438",
            "0x354bf0c82a04a4b045b7dec1b7ebf82999e937fe1c3283a1214b70e322b35dd7",
            "0x0000000000000000000000000c34ff558b55b70a61c3951fd9197f05271a827e",
            "0x0000000000000000000000004781a670e8524f229cf0f17783d7a1adea736925"
          ],
          "data": "0x0000000000000000000000000000000000000000000000000000000000800000000000000000000000000000000000000000000000000000000000000000003c000000000000000000000000df634c4d50566852951b18bc3fa96f05b907ffff00000000000000000000000000000000000000010000000000000000000000000000000000000000000000000000000000000000000000000000000000000000",
          "blockHash": "0x09e53382dbd3051e53e59e8931a80f64dd17f0db7061badbdd123b2d6429c179",
          "blockNumber": "0x2cc3f79",
          "blockTimestamp": "0x69b9ecc5",
          "transactionHash": "0xa8f6105de76892576a28799b336f0971d11e1cd74f9644a9081d75fe160bd4ff",
          "transactionIndex": "0xb",
          "logIndex": "0x9",
          "removed": false
        },
        {
          "address": "0xf969aee60879c54baaed9f3ed26147db216fd664",
          "topics": [
            "0xddf252ad1be2c89b69c2b068fc378daa952ba7f163c4a11628f55a4df523b3ef",
            "0x0000000000000000000000000000000000000000000000000000000000000000",
            "0x000000000000000000000000eeb3e0999d01f0d1ed465513e414725a357f6ae4",
            "0x0000000000000000000000000000000000000000000000000000000000001c40"
          ],
          "data": "0x",
          "blockHash": "0x09e53382dbd3051e53e59e8931a80f64dd17f0db7061badbdd123b2d6429c179",
          "blockNumber": "0x2cc3f79",
          "blockTimestamp": "0x69b9ecc5",
          "transactionHash": "0xa8f6105de76892576a28799b336f0971d11e1cd74f9644a9081d75fe160bd4ff",
          "transactionIndex": "0xb",
          "logIndex": "0xa",
          "removed": false
        },
        {
          "address": "0x00b036b58a818b1bc34d502d3fe730db729e62ac",
          "topics": [
            "0xf208f4912782fd25c7f114ca3723a2d5dd6f3bcc3ac8db5af63baa85f711d5ec",
            "0x354bf0c82a04a4b045b7dec1b7ebf82999e937fe1c3283a1214b70e322b35dd7",
            "0x000000000000000000000000f969aee60879c54baaed9f3ed26147db216fd664"
          ],
          "data": "0xfffffffffffffffffffffffffffffffffffffffffffffffffffffffffff2764c00000000000000000000000000000000000000000000000000000000000d89b4000000000000000000000000000000000000000000000a968163f0a57b4000000000000000000000000000000000000000000000000000000000000000001c40",
          "blockHash": "0x09e53382dbd3051e53e59e8931a80f64dd17f0db7061badbdd123b2d6429c179",
          "blockNumber": "0x2cc3f79",
          "blockTimestamp": "0x69b9ecc5",
          "transactionHash": "0xa8f6105de76892576a28799b336f0971d11e1cd74f9644a9081d75fe160bd4ff",
          "transactionIndex": "0xb",
          "logIndex": "0xb",
          "removed": false
        },
        {
          "address": "0x0c34ff558b55b70a61c3951fd9197f05271a827e",
          "topics": [
            "0xddf252ad1be2c89b69c2b068fc378daa952ba7f163c4a11628f55a4df523b3ef",
            "0x000000000000000000000000eeb3e0999d01f0d1ed465513e414725a357f6ae4",
            "0x00000000000000000000000000b036b58a818b1bc34d502d3fe730db729e62ac"
          ],
          "data": "0x000000000000000000000000000000000000000000000a968163f0a57b3ff563",
          "blockHash": "0x09e53382dbd3051e53e59e8931a80f64dd17f0db7061badbdd123b2d6429c179",
          "blockNumber": "0x2cc3f79",
          "blockTimestamp": "0x69b9ecc5",
          "transactionHash": "0xa8f6105de76892576a28799b336f0971d11e1cd74f9644a9081d75fe160bd4ff",
          "transactionIndex": "0xb",
          "logIndex": "0xc",
          "removed": false
        },
        {
          "address": "0x4781a670e8524f229cf0f17783d7a1adea736925",
          "topics": [
            "0xddf252ad1be2c89b69c2b068fc378daa952ba7f163c4a11628f55a4df523b3ef",
            "0x000000000000000000000000eeb3e0999d01f0d1ed465513e414725a357f6ae4",
            "0x00000000000000000000000000b036b58a818b1bc34d502d3fe730db729e62ac"
          ],
          "data": "0x000000000000000000000000000000000000000000000a968163f0a57b3ff563",
          "blockHash": "0x09e53382dbd3051e53e59e8931a80f64dd17f0db7061badbdd123b2d6429c179",
          "blockNumber": "0x2cc3f79",
          "blockTimestamp": "0x69b9ecc5",
          "transactionHash": "0xa8f6105de76892576a28799b336f0971d11e1cd74f9644a9081d75fe160bd4ff",
          "transactionIndex": "0xb",
          "logIndex": "0xd",
          "removed": false
        }
      ],
      "logsBloom": "0x00000000000000000000040000001000000000000000000000000000000000000000000000000000020000800000000000000000001000000000000002000020000000200000004004000008000000040000000000000000000000401000000000000000020000000000000000004880000000000040000000000010000000000000020001000008000000002008000000000001000000000000000000200000000004000000000200000000000000000800000000202020000000000010000000000102080000000000000100000000000000000008000000000400000020004000040000000000000008000000000004020000000002001002000000002010",
      "type": "0x2",
      "transactionHash": "0xa8f6105de76892576a28799b336f0971d11e1cd74f9644a9081d75fe160bd4ff",
      "transactionIndex": "0xb",
      "blockHash": "0x09e53382dbd3051e53e59e8931a80f64dd17f0db7061badbdd123b2d6429c179",
      "blockNumber": "0x2cc3f79",
      "gasUsed": "0x7bf80",
      "effectiveGasPrice": "0x7a121",
      "blobGasUsed": "0x1c9d0",
      "from": "0xeeb3e0999d01f0d1ed465513e414725a357f6ae4",
      "to": "0xf969aee60879c54baaed9f3ed26147db216fd664",
      "contractAddress": null,
      "daFootprintGasScalar": "0x190",
      "l1BaseFeeScalar": "0x7d0",
      "l1BlobBaseFee": "0x1",
      "l1BlobBaseFeeScalar": "0xdbba0",
      "l1Fee": "0x153",
      "l1GasPrice": "0x8",
      "l1GasUsed": "0x125a"
    }
  ],
  "libraries": [],
  "pending": [],
  "returns": {
    "poolKey": {
      "internal_type": "struct PoolKey",
      "value": "(0x0c34ff558b55B70a61c3951FD9197f05271A827e, 0x4781A670E8524f229CF0f17783D7A1adEA736925, 8388608, 60, 0xDF634c4D50566852951b18bc3fa96f05b907fFff)"
    },
    "poolId": {
      "internal_type": "PoolId",
      "value": "0x354bf0c82a04a4b045b7dec1b7ebf82999e937fe1c3283a1214b70e322b35dd7"
    }
  },
  "timestamp": 1773792453610,
  "chain": 1301,
  "commit": "d55e570"
}