{
  "transactions": [
    {
      "hash": "0x8c737de74ccd3ae9fcef28113c781d2d9b497f49340594843bce400ac710a6ec",
      "transactionType": "CALL",
      "contractName": null,
      "contractAddress": "0x944d768ad5cf410260f8438905d6921b3fa45672",
      "function": "approve(address,uint256)",
      "arguments": [
        "0x000000000022D473030F116dDEE9F6B43aC78BA3",
        "115792089237316195423570985008687907853269984665640564039457584007913129639935"
      ],
      "transaction": {
        "from": "0xeeb3e0999d01f0d1ed465513e414725a357f6ae4",
        "to": "0x944d768ad5cf410260f8438905d6921b3fa45672",
        "gas": "0xfa9c",
        "value": "0x0",
        "input": "0x095ea7b3000000000000000000000000000000000022d473030f116ddee9f6b43ac78ba3ffffffffffffffffffffffffffffffffffffffffffffffffffffffffffffffff",
        "nonce": "0x4d",
        "chainId": "0x515"
      },
      "additionalContracts": [],
      "isFixedGasLimit": false
    },
    {
      "hash": "0x61f6da5426e637ea18a6db3b4f1612e59563a7c5726efc8bc5913aafcb42ea5d",
      "transactionType": "CALL",
      "contractName": null,
      "contractAddress": "0x998af61cd0525b30c643308642df3f19634ca28c",
      "function": "approve(address,uint256)",
      "arguments": [
        "0x000000000022D473030F116dDEE9F6B43aC78BA3",
        "115792089237316195423570985008687907853269984665640564039457584007913129639935"
      ],
      "transaction": {
        "from": "0xeeb3e0999d01f0d1ed465513e414725a357f6ae4",
        "to": "0x998af61cd0525b30c643308642df3f19634ca28c",
        "gas": "0xfa9c",
        "value": "0x0",
        "input": "0x095ea7b3000000000000000000000000000000000022d473030f116ddee9f6b43ac78ba3ffffffffffffffffffffffffffffffffffffffffffffffffffffffffffffffff",
        "nonce": "0x4e",
        "chainId": "0x515"
      },
      "additionalContracts": [],
      "isFixedGasLimit": false
    },
    {
      "hash": "0x533e81be507ab32b452da4249368494e192e4f0e846bd27dc11a428d5592b492",
      "transactionType": "CALL",
      "contractName": null,
      "contractAddress": "0x000000000022d473030f116ddee9f6b43ac78ba3",
      "function": "approve(address,address,uint160,uint48)",
      "arguments": [
        "0x944D768aD5Cf410260F8438905d6921B3FA45672",
        "0xf969Aee60879C54bAAed9F3eD26147Db216Fd664",
        "1461501637330902918203684832716283019655932542975",
        "281474976710655"
      ],
      "transaction": {
        "from": "0xeeb3e0999d01f0d1ed465513e414725a357f6ae4",
        "to": "0x000000000022d473030f116ddee9f6b43ac78ba3",
        "gas": "0x1112d",
        "value": "0x0",
        "input": "0x87517c45000000000000000000000000944d768ad5cf410260f8438905d6921b3fa45672000000000000000000000000f969aee60879c54baaed9f3ed26147db216fd664000000000000000000000000ffffffffffffffffffffffffffffffffffffffff0000000000000000000000000000000000000000000000000000ffffffffffff",
        "nonce": "0x4f",
        "chainId": "0x515"
      },
      "additionalContracts": [],
      "isFixedGasLimit": false
    },
    {
      "hash": "0xcd430164f211348fc49edadfc9d8749140a67620d7e52131b045cce8f5c5592d",
      "transactionType": "CALL",
      "contractName": null,
      "contractAddress": "0x000000000022d473030f116ddee9f6b43ac78ba3",
      "function": "approve(address,address,uint160,uint48)",
      "arguments": [
        "0x998AF61cD0525b30c643308642Df3F19634ca28C",
        "0xf969Aee60879C54bAAed9F3eD26147Db216Fd664",
        "1461501637330902918203684832716283019655932542975",
        "281474976710655"
      ],
      "transaction": {
        "from": "0xeeb3e0999d01f0d1ed465513e414725a357f6ae4",
        "to": "0x000000000022d473030f116ddee9f6b43ac78ba3",
        "gas": "0x1112d",
        "value": "0x0",
        "input": "0x87517c45000000000000000000000000998af61cd0525b30c643308642df3f19634ca28c000000000000000000000000f969aee60879c54baaed9f3ed26147db216fd664000000000000000000000000ffffffffffffffffffffffffffffffffffffffff0000000000000000000000000000000000000000000000000000ffffffffffff",
        "nonce": "0x50",
        "chainId": "0x515"
      },
      "additionalContracts": [],
      "isFixedGasLimit": false
    },
    {
      "hash": "0xfb192fce7d389e84ca4bc2d48a1e5b2dbd03390592693b254b330a458bd59af4",
      "transactionType": "CALL",
      "contractName": null,
      "contractAddress": "0x5df0562d0f9fa211c3a10a7032026b4186a4bfff",
      "function": "preparePool((address,address,uint24,int24,address),uint8,address,address[])",
      "arguments": [
        "(0x944D768aD5Cf410260F8438905d6921B3FA45672, 0x998AF61cD0525b30c643308642Df3F19634ca28C, 0, 32767, 0x5dF0562d0f9FA211c3A10A7032026B4186a4bFFF)",
        "0",
        "0x0000000000000000000000000000000000000000",
        "[0xc59BBce255FC71b0a840829A3c4089D0DF4CbA80, 0x4197c1cEA5f404BC586387768151b4cC2F8D8040]"
      ],
      "transaction": {
        "from": "0xeeb3e0999d01f0d1ed465513e414725a357f6ae4",
        "to": "0x5df0562d0f9fa211c3a10a7032026b4186a4bfff",
        "gas": "0x27f1f",
        "value": "0x0",
        "input": "0x031dfd3f000000000000000000000000944d768ad5cf410260f8438905d6921b3fa45672000000000000000000000000998af61cd0525b30c643308642df3f19634ca28c00000000000000000000000000000000000000000000000000000000000000000000000000000000000000000000000000000000000000000000000000007fff0000000000000000000000005df0562d0f9fa211c3a10a7032026b4186a4bfff0000000000000000000000000000000000000000000000000000000000000000000000000000000000000000000000000000000000000000000000000000000000000000000000000000000000000000000000000000000000000000000001000000000000000000000000000000000000000000000000000000000000000002000000000000000000000000c59bbce255fc71b0a840829a3c4089d0df4cba800000000000000000000000004197c1cea5f404bc586387768151b4cc2f8d8040",
        "nonce": "0x51",
        "chainId": "0x515"
      },
      "additionalContracts": [],
      "isFixedGasLimit": false
    },
    {
      "hash": "0x4f1bb295166fc19cd6b1419875a2340ae395f3c6c2023d54edc46e3f8b18b194",
      "transactionType": "CALL",
      "contractName": null,
      "contractAddress": "0xf969aee60879c54baaed9f3ed26147db216fd664",
      "function": "multicall(bytes[])",
      "arguments": [
        "[0xf7020405000000000000000000000000944d768ad5cf410260f8438905d6921b3fa45672000000000000000000000000998af61cd0525b30c643308642df3f19634ca28c00000000000000000000000000000000000000000000000000000000000000000000000000000000000000000000000000000000000000000000000000007fff0000000000000000000000005df0562d0f9fa211c3a10a7032026b4186a4bfff0000000000000000000000000000000000000001000000000000000000000000, 0xdd46508f00000000000000000000000000000000000000000000000000000000000000400000000000000000000000000000000000000000000000000000000069bbe2970000000000000000000000000000000000000000000000000000000000000300000000000000000000000000000000000000000000000000000000000000004000000000000000000000000000000000000000000000000000000000000000800000000000000000000000000000000000000000000000000000000000000002020d00000000000000000000000000000000000000000000000000000000000000000000000000000000000000000000000000000000000000000000000000020000000000000000000000000000000000000000000000000000000000000040000000000000000000000000000000000000000000000000000000000000020000000000000000000000000000000000000000000000000000000000000001a0000000000000000000000000944d768ad5cf410260f8438905d6921b3fa45672000000000000000000000000998af61cd0525b30c643308642df3f19634ca28c00000000000000000000000000000000000000000000000000000000000000000000000000000000000000000000000000000000000000000000000000007fff0000000000000000000000005df0562d0f9fa211c3a10a7032026b4186a4bffffffffffffffffffffffffffffffffffffffffffffffffffffffffffffff2801b00000000000000000000000000000000000000000000000000000000000d7fe5000000000000000000000000000000000000000000000a968163f0a57b40000000000000000000000000000000000000ffffffffffffffffffffffffffffffff00000000000000000000000000000000ffffffffffffffffffffffffffffffff000000000000000000000000eeb3e0999d01f0d1ed465513e414725a357f6ae4000000000000000000000000000000000000000000000000000000000000018000000000000000000000000000000000000000000000000000000000000000000000000000000000000000000000000000000000000000000000000000000040000000000000000000000000944d768ad5cf410260f8438905d6921b3fa45672000000000000000000000000998af61cd0525b30c643308642df3f19634ca28c]"
      ],
      "transaction": {
        "from": "0xeeb3e0999d01f0d1ed465513e414725a357f6ae4",
        "to": "0xf969aee60879c54baaed9f3ed26147db216fd664",
        "gas": "0xeaa32",
        "value": "0x0",
        "input": "0xac9650d8000000000000000000000000000000000000000000000000000000000000002000000000000000000000000000000000000000000000000000000000000000020000000000000000000000000000000000000000000000000000000000000040000000000000000000000000000000000000000000000000000000000000014000000000000000000000000000000000000000000000000000000000000000c4f7020405000000000000000000000000944d768ad5cf410260f8438905d6921b3fa45672000000000000000000000000998af61cd0525b30c643308642df3f19634ca28c00000000000000000000000000000000000000000000000000000000000000000000000000000000000000000000000000000000000000000000000000007fff0000000000000000000000005df0562d0f9fa211c3a10a7032026b4186a4bfff0000000000000000000000000000000000000001000000000000000000000000000000000000000000000000000000000000000000000000000000000000000000000000000000000000000000000000000000000000000000000364dd46508f00000000000000000000000000000000000000000000000000000000000000400000000000000000000000000000000000000000000000000000000069bbe2970000000000000000000000000000000000000000000000000000000000000300000000000000000000000000000000000000000000000000000000000000004000000000000000000000000000000000000000000000000000000000000000800000000000000000000000000000000000000000000000000000000000000002020d00000000000000000000000000000000000000000000000000000000000000000000000000000000000000000000000000000000000000000000000000020000000000000000000000000000000000000000000000000000000000000040000000000000000000000000000000000000000000000000000000000000020000000000000000000000000000000000000000000000000000000000000001a0000000000000000000000000944d768ad5cf410260f8438905d6921b3fa45672000000000000000000000000998af61cd0525b30c643308642df3f19634ca28c00000000000000000000000000000000000000000000000000000000000000000000000000000000000000000000000000000000000000000000000000007fff0000000000000000000000005df0562d0f9fa211c3a10a7032026b4186a4bffffffffffffffffffffffffffffffffffffffffffffffffffffffffffffff2801b00000000000000000000000000000000000000000000000000000000000d7fe5000000000000000000000000000000000000000000000a968163f0a57b40000000000000000000000000000000000000ffffffffffffffffffffffffffffffff00000000000000000000000000000000ffffffffffffffffffffffffffffffff000000000000000000000000eeb3e0999d01f0d1ed465513e414725a357f6ae4000000000000000000000000000000000000000000000000000000000000018000000000000000000000000000000000000000000000000000000000000000000000000000000000000000000000000000000000000000000000000000000040000000000000000000000000944d768ad5cf410260f8438905d6921b3fa45672000000000000000000000000998af61cd0525b30c643308642df3f19634ca28c00000000000000000000000000000000000000000000000000000000",
        "nonce": "0x52",
        "chainId": "0x515"
      },
      "additionalContracts": [],
      "isFixedGasLimit": false
    }
  ],
  "receipts": [
    {
      "status": "0x1",
      "cumulativeGasUsed": "0xe319a",
      "logs": [
        {
          "address": "0x944d768ad5cf410260f8438905d6921b3fa45672",
          "topics": [
            "0x8c5be1e5ebec7d5bd14f71427d1e84f3dd0314c0f7b2291e5b200ac8c7c3b925",
            "0x000000000000000000000000eeb3e0999d01f0d1ed465513e414725a357f6ae4",
            "0x000000000000000000000000000000000022d473030f116ddee9f6b43ac78ba3"
          ],
          "data": "0xffffffffffffffffffffffffffffffffffffffffffffffffffffffffffffffff",
          "blockHash": "0xb498c8288b1db01d7b010035d1ab526144929d00ff479a5a9a6a69b999b51161",
          "blockNumber": "0x2ce3303",
          "blockTimestamp": "0x69bbe04f",
          "transactionHash": "0xcd430164f211348fc49edadfc9d8749140a67620d7e52131b045cce8f5c5592d",
          "transactionIndex": "0x6",
          "logIndex": "0xc",
          "removed": false
        }
      ],
      "logsBloom": "0x00000000000000000000000000000000000000000000000000000002000000000000000000000000000000000000000000000000800000000000000000200020000000000000000000004000000000000000000000000800000000000000000000000000000000000000000000000080000000000000000000000000000000000000000000000000000000000000000000000000000000000000000000000000020000000000000000000000000000000000000000000000000000000000000000000100000000000000000000000000000000000000000000000000000000000014004000000000000000000000000000000000000000000000000000000000",
      "type": "0x2",
      "transactionHash": "0xcd430164f211348fc49edadfc9d8749140a67620d7e52131b045cce8f5c5592d",
      "transactionIndex": "0x6",
      "blockHash": "0xb498c8288b1db01d7b010035d1ab526144929d00ff479a5a9a6a69b999b51161",
      "blockNumber": "0x2ce3303",
      "gasUsed": "0xb570",
      "effectiveGasPrice": "0x7a121",
      "blobGasUsed": "0x9c40",
      "from": "0xeeb3e0999d01f0d1ed465513e414725a357f6ae4",
      "to": "0x944d768ad5cf410260f8438905d6921b3fa45672",
      "contractAddress": null,
      "daFootprintGasScalar": "0x190",
      "l1BaseFeeScalar": "0x7d0",
      "l1BlobBaseFee": "0x1",
      "l1BlobBaseFeeScalar": "0xdbba0",
      "l1Fee": "0x7a",
      "l1GasPrice": "0xa",
      "l1GasUsed": "0x640"
    },
    {
      "status": "0x1",
      "cumulativeGasUsed": "0xee70a",
      "logs": [
        {
          "address": "0x998af61cd0525b30c643308642df3f19634ca28c",
          "topics": [
            "0x8c5be1e5ebec7d5bd14f71427d1e84f3dd0314c0f7b2291e5b200ac8c7c3b925",
            "0x000000000000000000000000eeb3e0999d01f0d1ed465513e414725a357f6ae4",
            "0x000000000000000000000000000000000022d473030f116ddee9f6b43ac78ba3"
          ],
          "data": "0xffffffffffffffffffffffffffffffffffffffffffffffffffffffffffffffff",
          "blockHash": "0xb498c8288b1db01d7b010035d1ab526144929d00ff479a5a9a6a69b999b51161",
          "blockNumber": "0x2ce3303",
          "blockTimestamp": "0x69bbe04f",
          "transactionHash": "0x61f6da5426e637ea18a6db3b4f1612e59563a7c5726efc8bc5913aafcb42ea5d",
          "transactionIndex": "0x7",
          "logIndex": "0xd",
          "removed": false
        }
      ],
      "logsBloom": "0x00000000000000000000000000000000000000000000000000000000000000000000000000000000010000000000000000000000800000000000000000200020000000000000000000004000000000000000000000000800000000000000000020000000000000000000000000000080000000000000000000000000000000000000000000000000000000000000000000000000000000000000000000000000020000000000000000000000000000010000000000000000000000000000000000000100000000000000000000000000000000000000000000000000000000000010000000000000000000000000000000000000000000000000000000000000",
      "type": "0x2",
      "transactionHash": "0x61f6da5426e637ea18a6db3b4f1612e59563a7c5726efc8bc5913aafcb42ea5d",
      "transactionIndex": "0x7",
      "blockHash": "0xb498c8288b1db01d7b010035d1ab526144929d00ff479a5a9a6a69b999b51161",
      "blockNumber": "0x2ce3303",
      "gasUsed": "0xb570",
      "effectiveGasPrice": "0x7a121",
      "blobGasUsed": "0x9c40",
      "from": "0xeeb3e0999d01f0d1ed465513e414725a357f6ae4",
      "to": "0x998af61cd0525b30c643308642df3f19634ca28c",
      "contractAddress": null,
      "daFootprintGasScalar": "0x190",
      "l1BaseFeeScalar": "0x7d0",
      "l1BlobBaseFee": "0x1",
      "l1BlobBaseFeeScalar": "0xdbba0",
      "l1Fee": "0x7a",
      "l1GasPrice": "0xa",
      "l1GasUsed": "0x640"
    },
    {
      "status": "0x1",
      "cumulativeGasUsed": "0x111206",
      "logs": [
        {
          "address": "0x000000000022d473030f116ddee9f6b43ac78ba3",
          "topics": [
            "0xda9fa7c1b00402c17d0161b249b1ab8bbec047c5a52207b9c112deffd817036b",
            "0x000000000000000000000000eeb3e0999d01f0d1ed465513e414725a357f6ae4",
            "0x000000000000000000000000944d768ad5cf410260f8438905d6921b3fa45672",
            "0x000000000000000000000000f969aee60879c54baaed9f3ed26147db216fd664"
          ],
          "data": "0x000000000000000000000000ffffffffffffffffffffffffffffffffffffffff0000000000000000000000000000000000000000000000000000ffffffffffff",
          "blockHash": "0xb498c8288b1db01d7b010035d1ab526144929d00ff479a5a9a6a69b999b51161",
          "blockNumber": "0x2ce3303",
          "blockTimestamp": "0x69bbe04f",
          "transactionHash": "0x4f1bb295166fc19cd6b1419875a2340ae395f3c6c2023d54edc46e3f8b18b194",
          "transactionIndex": "0x9",
          "logIndex": "0xf",
          "removed": false
        }
      ],
      "logsBloom": "0x00010000000000000000000000000000000000000000000000000000000000000000000000000000000000000000000000000000000000000000000000080020000000000000000000000000000000000000000000000000000000001000000000000000000000000000000000000080000000000840000000000000000000000020000000000000000000000000000000000000000000000000000000000000000000000000000000000000000000000000000000000000000000080000000000000100000000000000000000000200000000000000000040000000000000000000800000000000000000000000000000000000000000000000000000002400",
      "type": "0x2",
      "transactionHash": "0x4f1bb295166fc19cd6b1419875a2340ae395f3c6c2023d54edc46e3f8b18b194",
      "transactionIndex": "0x9",
      "blockHash": "0xb498c8288b1db01d7b010035d1ab526144929d00ff479a5a9a6a69b999b51161",
      "blockNumber": "0x2ce3303",
      "gasUsed": "0xbaca",
      "effectiveGasPrice": "0x7a121",
      "blobGasUsed": "0xa8c0",
      "from": "0xeeb3e0999d01f0d1ed465513e414725a357f6ae4",
      "to": "0x000000000022d473030f116ddee9f6b43ac78ba3",
      "contractAddress": null,
      "daFootprintGasScalar": "0x190",
      "l1BaseFeeScalar": "0x7d0",
      "l1BlobBaseFee": "0x1",
      "l1BlobBaseFeeScalar": "0xdbba0",
      "l1Fee": "0x84",
      "l1GasPrice": "0xa",
      "l1GasUsed": "0x6cd"
    },
    {
      "status": "0x1",
      "cumulativeGasUsed": "0x11ccd0",
      "logs": [
        {
          "address": "0x000000000022d473030f116ddee9f6b43ac78ba3",
          "topics": [
            "0xda9fa7c1b00402c17d0161b249b1ab8bbec047c5a52207b9c112deffd817036b",
            "0x000000000000000000000000eeb3e0999d01f0d1ed465513e414725a357f6ae4",
            "0x000000000000000000000000998af61cd0525b30c643308642df3f19634ca28c",
            "0x000000000000000000000000f969aee60879c54baaed9f3ed26147db216fd664"
          ],
          "data": "0x000000000000000000000000ffffffffffffffffffffffffffffffffffffffff0000000000000000000000000000000000000000000000000000ffffffffffff",
          "blockHash": "0xb498c8288b1db01d7b010035d1ab526144929d00ff479a5a9a6a69b999b51161",
          "blockNumber": "0x2ce3303",
          "blockTimestamp": "0x69bbe04f",
          "transactionHash": "0x533e81be507ab32b452da4249368494e192e4f0e846bd27dc11a428d5592b492",
          "transactionIndex": "0xa",
          "logIndex": "0x10",
          "removed": false
        }
      ],
      "logsBloom": "0x00010000000000000000000100000000000000000008000000000000000000000000000000000000000000000000000000000000000000000000000000080020000000000000000000000000000000000000000000000000000000001000000000000000000000000000000000000080000000000040000000000000000000000020000000000000000000000000000000000000000000000000000000000000000000000000000000000000000000000000000000000100000000080000000000000100000000000000000000000000000000000000000040000000000000000000000000000000000000000000000000000000000000000000000000002400",
      "type": "0x2",
      "transactionHash": "0x533e81be507ab32b452da4249368494e192e4f0e846bd27dc11a428d5592b492",
      "transactionIndex": "0xa",
      "blockHash": "0xb498c8288b1db01d7b010035d1ab526144929d00ff479a5a9a6a69b999b51161",
      "blockNumber": "0x2ce3303",
      "gasUsed": "0xbaca",
      "effectiveGasPrice": "0x7a121",
      "blobGasUsed": "0xa8c0",
      "from": "0xeeb3e0999d01f0d1ed465513e414725a357f6ae4",
      "to": "0x000000000022d473030f116ddee9f6b43ac78ba3",
      "contractAddress": null,
      "daFootprintGasScalar": "0x190",
      "l1BaseFeeScalar": "0x7d0",
      "l1BlobBaseFee": "0x1",
      "l1BlobBaseFeeScalar": "0xdbba0",
      "l1Fee": "0x84",
      "l1GasPrice": "0xa",
      "l1GasUsed": "0x6cd"
    },
    {
      "status": "0x1",
      "cumulativeGasUsed": "0x139b87",
      "logs": [
        {
          "address": "0x5df0562d0f9fa211c3a10a7032026b4186a4bfff",
          "topics": [
            "0xbb4ab43c98f27b164d83276362fb8c1767711ed5b3cd5b0781690a8411d4304c",
            "0xc622d94e3d7a976e145d4491eddc5e869cb4843f75ddc733dd030f3c3458b397"
          ],
          "data": "0x",
          "blockHash": "0xb498c8288b1db01d7b010035d1ab526144929d00ff479a5a9a6a69b999b51161",
          "blockNumber": "0x2ce3303",
          "blockTimestamp": "0x69bbe04f",
          "transactionHash": "0xfb192fce7d389e84ca4bc2d48a1e5b2dbd03390592693b254b330a458bd59af4",
          "transactionIndex": "0xb",
          "logIndex": "0x11",
          "removed": false
        }
      ],
      "logsBloom": "0x00000000000000000000002000000000000000000000080000000000000000000000000000000000000000000000000000000000000000000000000000000000800000000000010800000000000000000000000000000000000000000000000000000000000000000000000000000000000000000000000000000000000000000000000000000000000000000000002000000000000000000000000000000000000000000000000000000001000000000000000000000000000000000000000400000000000000000000000000000000000000000000000000000000000000080000000000000000000000000000000000000000000000000000000000000000",
      "type": "0x2",
      "transactionHash": "0xfb192fce7d389e84ca4bc2d48a1e5b2dbd03390592693b254b330a458bd59af4",
      "transactionIndex": "0xb",
      "blockHash": "0xb498c8288b1db01d7b010035d1ab526144929d00ff479a5a9a6a69b999b51161",
      "blockNumber": "0x2ce3303",
      "gasUsed": "0x1ceb7",
      "effectiveGasPrice": "0x7a121",
      "blobGasUsed": "0xfa00",
      "from": "0xeeb3e0999d01f0d1ed465513e414725a357f6ae4",
      "to": "0x5df0562d0f9fa211c3a10a7032026b4186a4bfff",
      "contractAddress": null,
      "daFootprintGasScalar": "0x190",
      "l1BaseFeeScalar": "0x7d0",
      "l1BlobBaseFee": "0x1",
      "l1BlobBaseFeeScalar": "0xdbba0",
      "l1Fee": "0xc4",
      "l1GasPrice": "0xa",
      "l1GasUsed": "0xa0a"
    },
    {
      "status": "0x1",
      "cumulativeGasUsed": "0x1da280",
      "logs": [
        {
          "address": "0x5df0562d0f9fa211c3a10a7032026b4186a4bfff",
          "topics": [
            "0xdfe560f5045b9b150e0232617d4ceceeaabdb73f36f85c7575de7ede98a12e24",
            "0xc622d94e3d7a976e145d4491eddc5e869cb4843f75ddc733dd030f3c3458b397",
            "0x000000000000000000000000c59bbce255fc71b0a840829a3c4089d0df4cba80"
          ],
          "data": "0x0000000000000000000000000000000000000000000000000000000000000000",
          "blockHash": "0xb498c8288b1db01d7b010035d1ab526144929d00ff479a5a9a6a69b999b51161",
          "blockNumber": "0x2ce3303",
          "blockTimestamp": "0x69bbe04f",
          "transactionHash": "0x8c737de74ccd3ae9fcef28113c781d2d9b497f49340594843bce400ac710a6ec",
          "transactionIndex": "0xc",
          "logIndex": "0x12",
          "removed": false
        },
        {
          "address": "0x5df0562d0f9fa211c3a10a7032026b4186a4bfff",
          "topics": [
            "0xdfe560f5045b9b150e0232617d4ceceeaabdb73f36f85c7575de7ede98a12e24",
            "0xc622d94e3d7a976e145d4491eddc5e869cb4843f75ddc733dd030f3c3458b397",
            "0x0000000000000000000000004197c1cea5f404bc586387768151b4cc2f8d8040"
          ],
          "data": "0x0000000000000000000000000000000000000000000000000000000000000001",
          "blockHash": "0xb498c8288b1db01d7b010035d1ab526144929d00ff479a5a9a6a69b999b51161",
          "blockNumber": "0x2ce3303",
          "blockTimestamp": "0x69bbe04f",
          "transactionHash": "0x8c737de74ccd3ae9fcef28113c781d2d9b497f49340594843bce400ac710a6ec",
          "transactionIndex": "0xc",
          "logIndex": "0x13",
          "removed": false
        },
        {
          "address": "0x5df0562d0f9fa211c3a10a7032026b4186a4bfff",
          "topics": [
            "0xd8b724ce3a95060bbd95c6ebf6da638aedc05ed9b2ba2933c871780244ee2bac",
            "0xc622d94e3d7a976e145d4491eddc5e869cb4843f75ddc733dd030f3c3458b397",
            "0x000000000000000000000000eeb3e0999d01f0d1ed465513e414725a357f6ae4"
          ],
          "data": "0x00000000000000000000000000000000000000000000000000000000000000000000000000000000000000000000000000000000000000000000000000000000",
          "blockHash": "0xb498c8288b1db01d7b010035d1ab526144929d00ff479a5a9a6a69b999b51161",
          "blockNumber": "0x2ce3303",
          "blockTimestamp": "0x69bbe04f",
          "transactionHash": "0x8c737de74ccd3ae9fcef28113c781d2d9b497f49340594843bce400ac710a6ec",
          "transactionIndex": "0xc",
          "logIndex": "0x14",
          "removed": false
        },
        {
          "address": "0x00b036b58a818b1bc34d502d3fe730db729e62ac",
          "topics": [
            "0xdd466e674ea557f56295e2d0218a125ea4b4f0f6f3307b95f85e6110838d6438",
            "0xc622d94e3d7a976e145d4491eddc5e869cb4843f75ddc733dd030f3c3458b397",
            "0x000000000000000000000000944d768ad5cf410260f8438905d6921b3fa45672",
            "0x000000000000000000000000998af61cd0525b30c643308642df3f19634ca28c"
          ],
          "data": "0x00000000000000000000000000000000000000000000000000000000000000000000000000000000000000000000000000000000000000000000000000007fff0000000000000000000000005df0562d0f9fa211c3a10a7032026b4186a4bfff00000000000000000000000000000000000000010000000000000000000000000000000000000000000000000000000000000000000000000000000000000000",
          "blockHash": "0xb498c8288b1db01d7b010035d1ab526144929d00ff479a5a9a6a69b999b51161",
          "blockNumber": "0x2ce3303",
          "blockTimestamp": "0x69bbe04f",
          "transactionHash": "0x8c737de74ccd3ae9fcef28113c781d2d9b497f49340594843bce400ac710a6ec",
          "transactionIndex": "0xc",
          "logIndex": "0x15",
          "removed": false
        },
        {
          "address": "0xf969aee60879c54baaed9f3ed26147db216fd664",
          "topics": [
            "0xddf252ad1be2c89b69c2b068fc378daa952ba7f163c4a11628f55a4df523b3ef",
            "0x0000000000000000000000000000000000000000000000000000000000000000",
            "0x000000000000000000000000eeb3e0999d01f0d1ed465513e414725a357f6ae4",
            "0x0000000000000000000000000000000000000000000000000000000000001c58"
          ],
          "data": "0x",
          "blockHash": "0xb498c8288b1db01d7b010035d1ab526144929d00ff479a5a9a6a69b999b51161",
          "blockNumber": "0x2ce3303",
          "blockTimestamp": "0x69bbe04f",
          "transactionHash": "0x8c737de74ccd3ae9fcef28113c781d2d9b497f49340594843bce400ac710a6ec",
          "transactionIndex": "0xc",
          "logIndex": "0x16",
          "removed": false
        },
        {
          "address": "0x00b036b58a818b1bc34d502d3fe730db729e62ac",
          "topics": [
            "0xf208f4912782fd25c7f114ca3723a2d5dd6f3bcc3ac8db5af63baa85f711d5ec",
            "0xc622d94e3d7a976e145d4491eddc5e869cb4843f75ddc733dd030f3c3458b397",
            "0x000000000000000000000000f969aee60879c54baaed9f3ed26147db216fd664"
          ],
          "data": "0xfffffffffffffffffffffffffffffffffffffffffffffffffffffffffff2801b00000000000000000000000000000000000000000000000000000000000d7fe5000000000000000000000000000000000000000000000a968163f0a57b4000000000000000000000000000000000000000000000000000000000000000001c58",
          "blockHash": "0xb498c8288b1db01d7b010035d1ab526144929d00ff479a5a9a6a69b999b51161",
          "blockNumber": "0x2ce3303",
          "blockTimestamp": "0x69bbe04f",
          "transactionHash": "0x8c737de74ccd3ae9fcef28113c781d2d9b497f49340594843bce400ac710a6ec",
          "transactionIndex": "0xc",
          "logIndex": "0x17",
          "removed": false
        },
        {
          "address": "0x944d768ad5cf410260f8438905d6921b3fa45672",
          "topics": [
            "0xddf252ad1be2c89b69c2b068fc378daa952ba7f163c4a11628f55a4df523b3ef",
            "0x000000000000000000000000eeb3e0999d01f0d1ed465513e414725a357f6ae4",
            "0x00000000000000000000000000b036b58a818b1bc34d502d3fe730db729e62ac"
          ],
          "data": "0x000000000000000000000000000000000000000000000a968163f0a57b3ff3f7",
          "blockHash": "0xb498c8288b1db01d7b010035d1ab526144929d00ff479a5a9a6a69b999b51161",
          "blockNumber": "0x2ce3303",
          "blockTimestamp": "0x69bbe04f",
          "transactionHash": "0x8c737de74ccd3ae9fcef28113c781d2d9b497f49340594843bce400ac710a6ec",
          "transactionIndex": "0xc",
          "logIndex": "0x18",
          "removed": false
        },
        {
          "address": "0x998af61cd0525b30c643308642df3f19634ca28c",
          "topics": [
            "0xddf252ad1be2c89b69c2b068fc378daa952ba7f163c4a11628f55a4df523b3ef",
            "0x000000000000000000000000eeb3e0999d01f0d1ed465513e414725a357f6ae4",
            "0x00000000000000000000000000b036b58a818b1bc34d502d3fe730db729e62ac"
          ],
          "data": "0x000000000000000000000000000000000000000000000a968163f0a57b3ff3f7",
          "blockHash": "0xb498c8288b1db01d7b010035d1ab526144929d00ff479a5a9a6a69b999b51161",
          "blockNumber": "0x2ce3303",
          "blockTimestamp": "0x69bbe04f",
          "transactionHash": "0x8c737de74ccd3ae9fcef28113c781d2d9b497f49340594843bce400ac710a6ec",
          "transactionIndex": "0xc",
          "logIndex": "0x19",
          "removed": false
        }
      ],
      "logsBloom": "0x00000000000000008000002100000000000000000408080000000002000000000000000000000000010000000000000000000000001000000000000000000020800000000000010000800008000000040000000000000000000000001000000020004000020000000000000000004880000000000840000000000010000000000000000001000008000000000008002000000001040000000000000000200000000004000000000000000101000000010800000000000120000000000000002420000102080000000000000000200200000000000008000000000000000020004004804000000000000000000000000004100000000002000002000000002010",
      "type": "0x2",
      "transactionHash": "0x8c737de74ccd3ae9fcef28113c781d2d9b497f49340594843bce400ac710a6ec",
      "transactionIndex": "0xc",
      "blockHash": "0xb498c8288b1db01d7b010035d1ab526144929d00ff479a5a9a6a69b999b51161",
      "blockNumber": "0x2ce3303",
      "gasUsed": "0xa06f9",
      "effectiveGasPrice": "0x7a121",
      "blobGasUsed": "0x1c520",
      "from": "0xeeb3e0999d01f0d1ed465513e414725a357f6ae4",
      "to": "0xf969aee60879c54baaed9f3ed26147db216fd664",
      "contractAddress": null,
      "daFootprintGasScalar": "0x190",
      "l1BaseFeeScalar": "0x7d0",
      "l1BlobBaseFee": "0x1",
      "l1BlobBaseFeeScalar": "0xdbba0",
      "l1Fee": "0x162",
      "l1GasPrice": "0xa",
      "l1GasUsed": "0x1225"
    }
  ],
  "libraries": [],
  "pending": [],
  "returns": {
    "poolKey": {
      "internal_type": "struct PoolKey",
      "value": "(0x944D768aD5Cf410260F8438905d6921B3FA45672, 0x998AF61cD0525b30c643308642Df3F19634ca28C, 0, 32767, 0x5dF0562d0f9FA211c3A10A7032026B4186a4bFFF)"
    },
    "poolId": {
      "internal_type": "PoolId",
      "value": "0xc622d94e3d7a976e145d4491eddc5e869cb4843f75ddc733dd030f3c3458b397"
    }
  },
  "timestamp": 1773920335125,
  "chain": 1301,
  "commit": "e05f922"
}