{
  "transactions": [
    {
      "hash": "0xb2fe0c4ec4b8f4990b026a403755133b74a37e1f89a6620d970955cb07c2417c",
      "transactionType": "CALL",
      "contractName": null,
      "contractAddress": "0x42f2d841c382eea08740ad9537fe8958736a65ce",
      "function": "approve(address,uint256)",
      "arguments": [
        "0x000000000022D473030F116dDEE9F6B43aC78BA3",
        "115792089237316195423570985008687907853269984665640564039457584007913129639935"
      ],
      "transaction": {
        "from": "0xeeb3e0999d01f0d1ed465513e414725a357f6ae4",
        "to": "0x42f2d841c382eea08740ad9537fe8958736a65ce",
        "gas": "0xfa9c",
        "value": "0x0",
        "input": "0x095ea7b3000000000000000000000000000000000022d473030f116ddee9f6b43ac78ba3ffffffffffffffffffffffffffffffffffffffffffffffffffffffffffffffff",
        "nonce": "0x24",
        "chainId": "0x515"
      },
      "additionalContracts": [],
      "isFixedGasLimit": false
    },
    {
      "hash": "0x58591e4c95f6bcca0280cde1d561c9ff9e65ca1062762340ff98d46312fa94fb",
      "transactionType": "CALL",
      "contractName": null,
      "contractAddress": "0xfb32250637b3bf054ec7b19264080b8ce5cf5f30",
      "function": "approve(address,uint256)",
      "arguments": [
        "0x000000000022D473030F116dDEE9F6B43aC78BA3",
        "115792089237316195423570985008687907853269984665640564039457584007913129639935"
      ],
      "transaction": {
        "from": "0xeeb3e0999d01f0d1ed465513e414725a357f6ae4",
        "to": "0xfb32250637b3bf054ec7b19264080b8ce5cf5f30",
        "gas": "0xfa9c",
        "value": "0x0",
        "input": "0x095ea7b3000000000000000000000000000000000022d473030f116ddee9f6b43ac78ba3ffffffffffffffffffffffffffffffffffffffffffffffffffffffffffffffff",
        "nonce": "0x25",
        "chainId": "0x515"
      },
      "additionalContracts": [],
      "isFixedGasLimit": false
    },
    {
      "hash": "0x46e0b4571e34af31f70bf080b99ec153abecd5d118ebd01ef1dc8bf7070a6815",
      "transactionType": "CALL",
      "contractName": null,
      "contractAddress": "0x000000000022d473030f116ddee9f6b43ac78ba3",
      "function": "approve(address,address,uint160,uint48)",
      "arguments": [
        "0x42f2d841c382eea08740AD9537Fe8958736A65Ce",
        "0xf969Aee60879C54bAAed9F3eD26147Db216Fd664",
        "1461501637330902918203684832716283019655932542975",
        "281474976710655"
      ],
      "transaction": {
        "from": "0xeeb3e0999d01f0d1ed465513e414725a357f6ae4",
        "to": "0x000000000022d473030f116ddee9f6b43ac78ba3",
        "gas": "0x1112d",
        "value": "0x0",
        "input": "0x87517c4500000000000000000000000042f2d841c382eea08740ad9537fe8958736a65ce000000000000000000000000f969aee60879c54baaed9f3ed26147db216fd664000000000000000000000000ffffffffffffffffffffffffffffffffffffffff0000000000000000000000000000000000000000000000000000ffffffffffff",
        "nonce": "0x26",
        "chainId": "0x515"
      },
      "additionalContracts": [],
      "isFixedGasLimit": false
    },
    {
      "hash": "0xbe3f41f8376699a1afe4241a49f6638a411118a2230e3e44de978b1ad0d9320b",
      "transactionType": "CALL",
      "contractName": null,
      "contractAddress": "0x000000000022d473030f116ddee9f6b43ac78ba3",
      "function": "approve(address,address,uint160,uint48)",
      "arguments": [
        "0xFb32250637B3bF054Ec7b19264080b8Ce5Cf5f30",
        "0xf969Aee60879C54bAAed9F3eD26147Db216Fd664",
        "1461501637330902918203684832716283019655932542975",
        "281474976710655"
      ],
      "transaction": {
        "from": "0xeeb3e0999d01f0d1ed465513e414725a357f6ae4",
        "to": "0x000000000022d473030f116ddee9f6b43ac78ba3",
        "gas": "0x1112d",
        "value": "0x0",
        "input": "0x87517c45000000000000000000000000fb32250637b3bf054ec7b19264080b8ce5cf5f30000000000000000000000000f969aee60879c54baaed9f3ed26147db216fd664000000000000000000000000ffffffffffffffffffffffffffffffffffffffff0000000000000000000000000000000000000000000000000000ffffffffffff",
        "nonce": "0x27",
        "chainId": "0x515"
      },
      "additionalContracts": [],
      "isFixedGasLimit": false
    },
    {
      "hash": "0x9f2af36405ae98f8d9df6645791796053846b63787a1f65cea1f9b69164d42d0",
      "transactionType": "CALL",
      "contractName": null,
      "contractAddress": "0xdf634c4d50566852951b18bc3fa96f05b907ffff",
      "function": "preparePool((address,address,uint24,int24,address),uint8,address)",
      "arguments": [
        "(0x42f2d841c382eea08740AD9537Fe8958736A65Ce, 0xFb32250637B3bF054Ec7b19264080b8Ce5Cf5f30, 8388608, 60, 0xDF634c4D50566852951b18bc3fa96f05b907fFff)",
        "0",
        "0x0000000000000000000000000000000000000000"
      ],
      "transaction": {
        "from": "0xeeb3e0999d01f0d1ed465513e414725a357f6ae4",
        "to": "0xdf634c4d50566852951b18bc3fa96f05b907ffff",
        "gas": "0x11843",
        "value": "0x0",
        "input": "0x485227eb00000000000000000000000042f2d841c382eea08740ad9537fe8958736a65ce000000000000000000000000fb32250637b3bf054ec7b19264080b8ce5cf5f300000000000000000000000000000000000000000000000000000000000800000000000000000000000000000000000000000000000000000000000000000003c000000000000000000000000df634c4d50566852951b18bc3fa96f05b907ffff00000000000000000000000000000000000000000000000000000000000000000000000000000000000000000000000000000000000000000000000000000000",
        "nonce": "0x28",
        "chainId": "0x515"
      },
      "additionalContracts": [],
      "isFixedGasLimit": false
    },
    {
      "hash": "0xcbd969b2bf790d7facea37e36f52f4749e0ed29ac136bd9617b67a579aeedf77",
      "transactionType": "CALL",
      "contractName": null,
      "contractAddress": "0xf969aee60879c54baaed9f3ed26147db216fd664",
      "function": "multicall(bytes[])",
      "arguments": [
        "[0xf702040500000000000000000000000042f2d841c382eea08740ad9537fe8958736a65ce000000000000000000000000fb32250637b3bf054ec7b19264080b8ce5cf5f300000000000000000000000000000000000000000000000000000000000800000000000000000000000000000000000000000000000000000000000000000003c000000000000000000000000df634c4d50566852951b18bc3fa96f05b907ffff0000000000000000000000000000000000000001000000000000000000000000, 0xdd46508f00000000000000000000000000000000000000000000000000000000000000400000000000000000000000000000000000000000000000000000000069bad77a0000000000000000000000000000000000000000000000000000000000000300000000000000000000000000000000000000000000000000000000000000004000000000000000000000000000000000000000000000000000000000000000800000000000000000000000000000000000000000000000000000000000000002020d00000000000000000000000000000000000000000000000000000000000000000000000000000000000000000000000000000000000000000000000000020000000000000000000000000000000000000000000000000000000000000040000000000000000000000000000000000000000000000000000000000000020000000000000000000000000000000000000000000000000000000000000001a000000000000000000000000042f2d841c382eea08740ad9537fe8958736a65ce000000000000000000000000fb32250637b3bf054ec7b19264080b8ce5cf5f300000000000000000000000000000000000000000000000000000000000800000000000000000000000000000000000000000000000000000000000000000003c000000000000000000000000df634c4d50566852951b18bc3fa96f05b907fffffffffffffffffffffffffffffffffffffffffffffffffffffffffffffff2764c00000000000000000000000000000000000000000000000000000000000d89b4000000000000000000000000000000000000000000000a968163f0a57b40000000000000000000000000000000000000ffffffffffffffffffffffffffffffff00000000000000000000000000000000ffffffffffffffffffffffffffffffff000000000000000000000000eeb3e0999d01f0d1ed465513e414725a357f6ae400000000000000000000000000000000000000000000000000000000000001800000000000000000000000000000000000000000000000000000000000000000000000000000000000000000000000000000000000000000000000000000004000000000000000000000000042f2d841c382eea08740ad9537fe8958736a65ce000000000000000000000000fb32250637b3bf054ec7b19264080b8ce5cf5f30]"
      ],
      "transaction": {
        "from": "0xeeb3e0999d01f0d1ed465513e414725a357f6ae4",
        "to": "0xf969aee60879c54baaed9f3ed26147db216fd664",
        "gas": "0xab3b5",
        "value": "0x0",
        "input": "0xac9650d8000000000000000000000000000000000000000000000000000000000000002000000000000000000000000000000000000000000000000000000000000000020000000000000000000000000000000000000000000000000000000000000040000000000000000000000000000000000000000000000000000000000000014000000000000000000000000000000000000000000000000000000000000000c4f702040500000000000000000000000042f2d841c382eea08740ad9537fe8958736a65ce000000000000000000000000fb32250637b3bf054ec7b19264080b8ce5cf5f300000000000000000000000000000000000000000000000000000000000800000000000000000000000000000000000000000000000000000000000000000003c000000000000000000000000df634c4d50566852951b18bc3fa96f05b907ffff0000000000000000000000000000000000000001000000000000000000000000000000000000000000000000000000000000000000000000000000000000000000000000000000000000000000000000000000000000000000000364dd46508f00000000000000000000000000000000000000000000000000000000000000400000000000000000000000000000000000000000000000000000000069bad77a0000000000000000000000000000000000000000000000000000000000000300000000000000000000000000000000000000000000000000000000000000004000000000000000000000000000000000000000000000000000000000000000800000000000000000000000000000000000000000000000000000000000000002020d00000000000000000000000000000000000000000000000000000000000000000000000000000000000000000000000000000000000000000000000000020000000000000000000000000000000000000000000000000000000000000040000000000000000000000000000000000000000000000000000000000000020000000000000000000000000000000000000000000000000000000000000001a000000000000000000000000042f2d841c382eea08740ad9537fe8958736a65ce000000000000000000000000fb32250637b3bf054ec7b19264080b8ce5cf5f300000000000000000000000000000000000000000000000000000000000800000000000000000000000000000000000000000000000000000000000000000003c000000000000000000000000df634c4d50566852951b18bc3fa96f05b907fffffffffffffffffffffffffffffffffffffffffffffffffffffffffffffff2764c00000000000000000000000000000000000000000000000000000000000d89b4000000000000000000000000000000000000000000000a968163f0a57b40000000000000000000000000000000000000ffffffffffffffffffffffffffffffff00000000000000000000000000000000ffffffffffffffffffffffffffffffff000000000000000000000000eeb3e0999d01f0d1ed465513e414725a357f6ae400000000000000000000000000000000000000000000000000000000000001800000000000000000000000000000000000000000000000000000000000000000000000000000000000000000000000000000000000000000000000000000004000000000000000000000000042f2d841c382eea08740ad9537fe8958736a65ce000000000000000000000000fb32250637b3bf054ec7b19264080b8ce5cf5f3000000000000000000000000000000000000000000000000000000000",
        "nonce": "0x29",
        "chainId": "0x515"
      },
      "additionalContracts": [],
      "isFixedGasLimit": false
    }
  ],
  "receipts": [
    {
      "status": "0x1",
      "cumulativeGasUsed": "0x89b5b",
      "logs": [
        {
          "address": "0x42f2d841c382eea08740ad9537fe8958736a65ce",
          "topics": [
            "0x8c5be1e5ebec7d5bd14f71427d1e84f3dd0314c0f7b2291e5b200ac8c7c3b925",
            "0x000000000000000000000000eeb3e0999d01f0d1ed465513e414725a357f6ae4",
            "0x000000000000000000000000000000000022d473030f116ddee9f6b43ac78ba3"
          ],
          "data": "0xffffffffffffffffffffffffffffffffffffffffffffffffffffffffffffffff",
          "blockHash": "0xc30a6bba9f4b03df1827fcfae180e00ce98edb109472b25d77ef852a5d148a11",
          "blockNumber": "0x2cd27e0",
          "blockTimestamp": "0x69bad52c",
          "transactionHash": "0xbe3f41f8376699a1afe4241a49f6638a411118a2230e3e44de978b1ad0d9320b",
          "transactionIndex": "0x6",
          "logIndex": "0x9",
          "removed": false
        }
      ],
      "logsBloom": "0x00000000000000000000000000000000000000000000000000000000000000000000000000000000000000000000000000000000c00000000000004000200020000000000000000000004000000000000000000000000800000000000000000000000000000000000000000000000080000000000000000000000000000000000000000000000000000000000000000000000000000000000000000000000000020000000000000000000000000000000000000000000400000000000000000000000100000000000000000000000000000000000000000000000000000000000010000000000000000000000000000000000000000000000000000000000000",
      "type": "0x2",
      "transactionHash": "0xbe3f41f8376699a1afe4241a49f6638a411118a2230e3e44de978b1ad0d9320b",
      "transactionIndex": "0x6",
      "blockHash": "0xc30a6bba9f4b03df1827fcfae180e00ce98edb109472b25d77ef852a5d148a11",
      "blockNumber": "0x2cd27e0",
      "gasUsed": "0xb570",
      "effectiveGasPrice": "0x7a121",
      "blobGasUsed": "0x9c40",
      "from": "0xeeb3e0999d01f0d1ed465513e414725a357f6ae4",
      "to": "0x42f2d841c382eea08740ad9537fe8958736a65ce",
      "contractAddress": null,
      "daFootprintGasScalar": "0x190",
      "l1BaseFeeScalar": "0x7d0",
      "l1BlobBaseFee": "0x1",
      "l1BlobBaseFeeScalar": "0xdbba0",
      "l1Fee": "0x76",
      "l1GasPrice": "0x9",
      "l1GasUsed": "0x640"
    },
    {
      "status": "0x1",
      "cumulativeGasUsed": "0x950cb",
      "logs": [
        {
          "address": "0xfb32250637b3bf054ec7b19264080b8ce5cf5f30",
          "topics": [
            "0x8c5be1e5ebec7d5bd14f71427d1e84f3dd0314c0f7b2291e5b200ac8c7c3b925",
            "0x000000000000000000000000eeb3e0999d01f0d1ed465513e414725a357f6ae4",
            "0x000000000000000000000000000000000022d473030f116ddee9f6b43ac78ba3"
          ],
          "data": "0xffffffffffffffffffffffffffffffffffffffffffffffffffffffffffffffff",
          "blockHash": "0xc30a6bba9f4b03df1827fcfae180e00ce98edb109472b25d77ef852a5d148a11",
          "blockNumber": "0x2cd27e0",
          "blockTimestamp": "0x69bad52c",
          "transactionHash": "0xb2fe0c4ec4b8f4990b026a403755133b74a37e1f89a6620d970955cb07c2417c",
          "transactionIndex": "0x7",
          "logIndex": "0xa",
          "removed": false
        }
      ],
      "logsBloom": "0x00000000000000000000000000000000000000000000000000000800000000000000000000000000000000000000000000000000800000000000000000200020000000000000000000004000000000000000000000000800000000000000000000000000000000000000000000000080000000000000000000000000000000000000000000000000000000000000000000000000000000000000000000000000020000000000000000000000000000000004000000000000000000000000000000000100000000000000000000000000000000000000000000000000000000000010000000000000000000000000000001000000000000000000000000000000",
      "type": "0x2",
      "transactionHash": "0xb2fe0c4ec4b8f4990b026a403755133b74a37e1f89a6620d970955cb07c2417c",
      "transactionIndex": "0x7",
      "blockHash": "0xc30a6bba9f4b03df1827fcfae180e00ce98edb109472b25d77ef852a5d148a11",
      "blockNumber": "0x2cd27e0",
      "gasUsed": "0xb570",
      "effectiveGasPrice": "0x7a121",
      "blobGasUsed": "0x9c40",
      "from": "0xeeb3e0999d01f0d1ed465513e414725a357f6ae4",
      "to": "0xfb32250637b3bf054ec7b19264080b8ce5cf5f30",
      "contractAddress": null,
      "daFootprintGasScalar": "0x190",
      "l1BaseFeeScalar": "0x7d0",
      "l1BlobBaseFee": "0x1",
      "l1BlobBaseFeeScalar": "0xdbba0",
      "l1Fee": "0x76",
      "l1GasPrice": "0x9",
      "l1GasUsed": "0x640"
    },
    {
      "status": "0x1",
      "cumulativeGasUsed": "0xa0b95",
      "logs": [
        {
          "address": "0x000000000022d473030f116ddee9f6b43ac78ba3",
          "topics": [
            "0xda9fa7c1b00402c17d0161b249b1ab8bbec047c5a52207b9c112deffd817036b",
            "0x000000000000000000000000eeb3e0999d01f0d1ed465513e414725a357f6ae4",
            "0x00000000000000000000000042f2d841c382eea08740ad9537fe8958736a65ce",
            "0x000000000000000000000000f969aee60879c54baaed9f3ed26147db216fd664"
          ],
          "data": "0x000000000000000000000000ffffffffffffffffffffffffffffffffffffffff0000000000000000000000000000000000000000000000000000ffffffffffff",
          "blockHash": "0xc30a6bba9f4b03df1827fcfae180e00ce98edb109472b25d77ef852a5d148a11",
          "blockNumber": "0x2cd27e0",
          "blockTimestamp": "0x69bad52c",
          "transactionHash": "0x9f2af36405ae98f8d9df6645791796053846b63787a1f65cea1f9b69164d42d0",
          "transactionIndex": "0x8",
          "logIndex": "0xb",
          "removed": false
        }
      ],
      "logsBloom": "0x00010000000000000000000000000000000000000000000000000000000000000000000000000000000000000000000000000000000000000000000000080020000000000000000000000000000000000000000000000000000000001000000000000000000000000000000000000080000000000040000000000000000000000020000000000000000000000000000000000000000000000000000000000020000000000000000000020000000000000000000000000001000000080000000000000100000000000000000000000000000000000000000040000000000000000000000000000000000000000000000000000000000000000000000000002400",
      "type": "0x2",
      "transactionHash": "0x9f2af36405ae98f8d9df6645791796053846b63787a1f65cea1f9b69164d42d0",
      "transactionIndex": "0x8",
      "blockHash": "0xc30a6bba9f4b03df1827fcfae180e00ce98edb109472b25d77ef852a5d148a11",
      "blockNumber": "0x2cd27e0",
      "gasUsed": "0xbaca",
      "effectiveGasPrice": "0x7a121",
      "blobGasUsed": "0xa8c0",
      "from": "0xeeb3e0999d01f0d1ed465513e414725a357f6ae4",
      "to": "0x000000000022d473030f116ddee9f6b43ac78ba3",
      "contractAddress": null,
      "daFootprintGasScalar": "0x190",
      "l1BaseFeeScalar": "0x7d0",
      "l1BlobBaseFee": "0x1",
      "l1BlobBaseFeeScalar": "0xdbba0",
      "l1Fee": "0x81",
      "l1GasPrice": "0x9",
      "l1GasUsed": "0x6cd"
    },
    {
      "status": "0x1",
      "cumulativeGasUsed": "0xac65f",
      "logs": [
        {
          "address": "0x000000000022d473030f116ddee9f6b43ac78ba3",
          "topics": [
            "0xda9fa7c1b00402c17d0161b249b1ab8bbec047c5a52207b9c112deffd817036b",
            "0x000000000000000000000000eeb3e0999d01f0d1ed465513e414725a357f6ae4",
            "0x000000000000000000000000fb32250637b3bf054ec7b19264080b8ce5cf5f30",
            "0x000000000000000000000000f969aee60879c54baaed9f3ed26147db216fd664"
          ],
          "data": "0x000000000000000000000000ffffffffffffffffffffffffffffffffffffffff0000000000000000000000000000000000000000000000000000ffffffffffff",
          "blockHash": "0xc30a6bba9f4b03df1827fcfae180e00ce98edb109472b25d77ef852a5d148a11",
          "blockNumber": "0x2cd27e0",
          "blockTimestamp": "0x69bad52c",
          "transactionHash": "0xcbd969b2bf790d7facea37e36f52f4749e0ed29ac136bd9617b67a579aeedf77",
          "transactionIndex": "0x9",
          "logIndex": "0xc",
          "removed": false
        }
      ],
      "logsBloom": "0x00010000000000000000000000000000000000000000000000000000000000000000000000000000000000000000000000000000000000000000000000080020000000000000000000000000000000000000000000000000000000001000000000000000000000000000000000000080000000000040000000000000000000000020000000000000000000000000000000000000000000000000000020000000000000000000000000000000000000000000240000000000000000080000000000000100000000000000000000000000000000000000000040000000000000000000000000000000000000000000000000000000000000000000000000002400",
      "type": "0x2",
      "transactionHash": "0xcbd969b2bf790d7facea37e36f52f4749e0ed29ac136bd9617b67a579aeedf77",
      "transactionIndex": "0x9",
      "blockHash": "0xc30a6bba9f4b03df1827fcfae180e00ce98edb109472b25d77ef852a5d148a11",
      "blockNumber": "0x2cd27e0",
      "gasUsed": "0xbaca",
      "effectiveGasPrice": "0x7a121",
      "blobGasUsed": "0xa8c0",
      "from": "0xeeb3e0999d01f0d1ed465513e414725a357f6ae4",
      "to": "0x000000000022d473030f116ddee9f6b43ac78ba3",
      "contractAddress": null,
      "daFootprintGasScalar": "0x190",
      "l1BaseFeeScalar": "0x7d0",
      "l1BlobBaseFee": "0x1",
      "l1BlobBaseFeeScalar": "0xdbba0",
      "l1Fee": "0x81",
      "l1GasPrice": "0x9",
      "l1GasUsed": "0x6cd"
    },
    {
      "status": "0x1",
      "cumulativeGasUsed": "0xb8601",
      "logs": [],
      "logsBloom": "0x00000000000000000000000000000000000000000000000000000000000000000000000000000000000000000000000000000000000000000000000000000000000000000000000000000000000000000000000000000000000000000000000000000000000000000000000000000000000000000000000000000000000000000000000000000000000000000000000000000000000000000000000000000000000000000000000000000000000000000000000000000000000000000000000000000000000000000000000000000000000000000000000000000000000000000000000000000000000000000000000000000000000000000000000000000000",
      "type": "0x2",
      "transactionHash": "0x46e0b4571e34af31f70bf080b99ec153abecd5d118ebd01ef1dc8bf7070a6815",
      "transactionIndex": "0xa",
      "blockHash": "0xc30a6bba9f4b03df1827fcfae180e00ce98edb109472b25d77ef852a5d148a11",
      "blockNumber": "0x2cd27e0",
      "gasUsed": "0xbfa2",
      "effectiveGasPrice": "0x7a121",
      "blobGasUsed": "0xb9f0",
      "from": "0xeeb3e0999d01f0d1ed465513e414725a357f6ae4",
      "to": "0xdf634c4d50566852951b18bc3fa96f05b907ffff",
      "contractAddress": null,
      "daFootprintGasScalar": "0x190",
      "l1BaseFeeScalar": "0x7d0",
      "l1BlobBaseFee": "0x1",
      "l1BlobBaseFeeScalar": "0xdbba0",
      "l1Fee": "0x8e",
      "l1GasPrice": "0x9",
      "l1GasUsed": "0x77b"
    },
    {
      "status": "0x1",
      "cumulativeGasUsed": "0x134581",
      "logs": [
        {
          "address": "0xdf634c4d50566852951b18bc3fa96f05b907ffff",
          "topics": [
            "0xd8b724ce3a95060bbd95c6ebf6da638aedc05ed9b2ba2933c871780244ee2bac",
            "0x87c7608d967ac897b65e627ab2aa6ac5e28458c63724bf27d45454961cfb19fd",
            "0x000000000000000000000000eeb3e0999d01f0d1ed465513e414725a357f6ae4"
          ],
          "data": "0x00000000000000000000000000000000000000000000000000000000000000000000000000000000000000000000000000000000000000000000000000000000",
          "blockHash": "0xc30a6bba9f4b03df1827fcfae180e00ce98edb109472b25d77ef852a5d148a11",
          "blockNumber": "0x2cd27e0",
          "blockTimestamp": "0x69bad52c",
          "transactionHash": "0x58591e4c95f6bcca0280cde1d561c9ff9e65ca1062762340ff98d46312fa94fb",
          "transactionIndex": "0xb",
          "logIndex": "0xd",
          "removed": false
        },
        {
          "address": "0x00b036b58a818b1bc34d502d3fe730db729e62ac",
          "topics": [
            "0xdd466e674ea557f56295e2d0218a125ea4b4f0f6f3307b95f85e6110838d6438",
            "0x87c7608d967ac897b65e627ab2aa6ac5e28458c63724bf27d45454961cfb19fd",
            "0x00000000000000000000000042f2d841c382eea08740ad9537fe8958736a65ce",
            "0x000000000000000000000000fb32250637b3bf054ec7b19264080b8ce5cf5f30"
          ],
          "data": "0x0000000000000000000000000000000000000000000000000000000000800000000000000000000000000000000000000000000000000000000000000000003c000000000000000000000000df634c4d50566852951b18bc3fa96f05b907ffff00000000000000000000000000000000000000010000000000000000000000000000000000000000000000000000000000000000000000000000000000000000",
          "blockHash": "0xc30a6bba9f4b03df1827fcfae180e00ce98edb109472b25d77ef852a5d148a11",
          "blockNumber": "0x2cd27e0",
          "blockTimestamp": "0x69bad52c",
          "transactionHash": "0x58591e4c95f6bcca0280cde1d561c9ff9e65ca1062762340ff98d46312fa94fb",
          "transactionIndex": "0xb",
          "logIndex": "0xe",
          "removed": false
        },
        {
          "address": "0xf969aee60879c54baaed9f3ed26147db216fd664",
          "topics": [
            "0xddf252ad1be2c89b69c2b068fc378daa952ba7f163c4a11628f55a4df523b3ef",
            "0x0000000000000000000000000000000000000000000000000000000000000000",
            "0x000000000000000000000000eeb3e0999d01f0d1ed465513e414725a357f6ae4",
            "0x0000000000000000000000000000000000000000000000000000000000001c48"
          ],
          "data": "0x",
          "blockHash": "0xc30a6bba9f4b03df1827fcfae180e00ce98edb109472b25d77ef852a5d148a11",
          "blockNumber": "0x2cd27e0",
          "blockTimestamp": "0x69bad52c",
          "transactionHash": "0x58591e4c95f6bcca0280cde1d561c9ff9e65ca1062762340ff98d46312fa94fb",
          "transactionIndex": "0xb",
          "logIndex": "0xf",
          "removed": false
        },
        {
          "address": "0x00b036b58a818b1bc34d502d3fe730db729e62ac",
          "topics": [
            "0xf208f4912782fd25c7f114ca3723a2d5dd6f3bcc3ac8db5af63baa85f711d5ec",
            "0x87c7608d967ac897b65e627ab2aa6ac5e28458c63724bf27d45454961cfb19fd",
            "0x000000000000000000000000f969aee60879c54baaed9f3ed26147db216fd664"
          ],
          "data": "0xfffffffffffffffffffffffffffffffffffffffffffffffffffffffffff2764c00000000000000000000000000000000000000000000000000000000000d89b4000000000000000000000000000000000000000000000a968163f0a57b4000000000000000000000000000000000000000000000000000000000000000001c48",
          "blockHash": "0xc30a6bba9f4b03df1827fcfae180e00ce98edb109472b25d77ef852a5d148a11",
          "blockNumber": "0x2cd27e0",
          "blockTimestamp": "0x69bad52c",
          "transactionHash": "0x58591e4c95f6bcca0280cde1d561c9ff9e65ca1062762340ff98d46312fa94fb",
          "transactionIndex": "0xb",
          "logIndex": "0x10",
          "removed": false
        },
        {
          "address": "0x42f2d841c382eea08740ad9537fe8958736a65ce",
          "topics": [
            "0xddf252ad1be2c89b69c2b068fc378daa952ba7f163c4a11628f55a4df523b3ef",
            "0x000000000000000000000000eeb3e0999d01f0d1ed465513e414725a357f6ae4",
            "0x00000000000000000000000000b036b58a818b1bc34d502d3fe730db729e62ac"
          ],
          "data": "0x000000000000000000000000000000000000000000000a968163f0a57b3ff563",
          "blockHash": "0xc30a6bba9f4b03df1827fcfae180e00ce98edb109472b25d77ef852a5d148a11",
          "blockNumber": "0x2cd27e0",
          "blockTimestamp": "0x69bad52c",
          "transactionHash": "0x58591e4c95f6bcca0280cde1d561c9ff9e65ca1062762340ff98d46312fa94fb",
          "transactionIndex": "0xb",
          "logIndex": "0x11",
          "removed": false
        },
        {
          "address": "0xfb32250637b3bf054ec7b19264080b8ce5cf5f30",
          "topics": [
            "0xddf252ad1be2c89b69c2b068fc378daa952ba7f163c4a11628f55a4df523b3ef",
            "0x000000000000000000000000eeb3e0999d01f0d1ed465513e414725a357f6ae4",
            "0x00000000000000000000000000b036b58a818b1bc34d502d3fe730db729e62ac"
          ],
          "data": "0x000000000000000000000000000000000000000000000a968163f0a57b3ff563",
          "blockHash": "0xc30a6bba9f4b03df1827fcfae180e00ce98edb109472b25d77ef852a5d148a11",
          "blockNumber": "0x2cd27e0",
          "blockTimestamp": "0x69bad52c",
          "transactionHash": "0x58591e4c95f6bcca0280cde1d561c9ff9e65ca1062762340ff98d46312fa94fb",
          "transactionIndex": "0xb",
          "logIndex": "0x12",
          "removed": false
        }
      ],
      "logsBloom": "0x00000000000000000000040000000000000000000000000000000800000000000000000000000000000000000000000000000000401000000000004002000020000000200000000000400008000000040000200000000000000000001000000000000000020000000000000000004880000000000040000000000010200000000000000001000008000000000008008000000001000000000000000820200020000004000010000000020000000000000804240000000421000000000000000000000102080000000000000000000000000000000008000000000000000020004000000000000000000000000000000005000000000002000002000000002010",
      "type": "0x2",
      "transactionHash": "0x58591e4c95f6bcca0280cde1d561c9ff9e65ca1062762340ff98d46312fa94fb",
      "transactionIndex": "0xb",
      "blockHash": "0xc30a6bba9f4b03df1827fcfae180e00ce98edb109472b25d77ef852a5d148a11",
      "blockNumber": "0x2cd27e0",
      "gasUsed": "0x7bf80",
      "effectiveGasPrice": "0x7a121",
      "blobGasUsed": "0x1c9d0",
      "from": "0xeeb3e0999d01f0d1ed465513e414725a357f6ae4",
      "to": "0xf969aee60879c54baaed9f3ed26147db216fd664",
      "contractAddress": null,
      "daFootprintGasScalar": "0x190",
      "l1BaseFeeScalar": "0x7d0",
      "l1BlobBaseFee": "0x1",
      "l1BlobBaseFeeScalar": "0xdbba0",
      "l1Fee": "0x15c",
      "l1GasPrice": "0x9",
      "l1GasUsed": "0x125a"
    }
  ],
  "libraries": [],
  "pending": [],
  "returns": {
    "poolKey": {
      "internal_type": "struct PoolKey",
      "value": "(0x42f2d841c382eea08740AD9537Fe8958736A65Ce, 0xFb32250637B3bF054Ec7b19264080b8Ce5Cf5f30, 8388608, 60, 0xDF634c4D50566852951b18bc3fa96f05b907fFff)"
    },
    "poolId": {
      "internal_type": "PoolId",
      "value": "0x87c7608d967ac897b65e627ab2aa6ac5e28458c63724bf27d45454961cfb19fd"
    }
  },
  "timestamp": 1773851951417,
  "chain": 1301,
  "commit": "f2d9226"
}