{
  "transactions": [
    {
      "hash": "0x472361eb39bac2efa02d5b5b0cd2361710dadaad06a62cab12babcf9ea417be6",
      "transactionType": "CALL",
      "contractName": null,
      "contractAddress": "0x607483b50c5f06c25cdc316b6d1e071084eec9f5",
      "function": "approve(address,uint256)",
      "arguments": [
        "0x000000000022D473030F116dDEE9F6B43aC78BA3",
        "115792089237316195423570985008687907853269984665640564039457584007913129639935"
      ],
      "transaction": {
        "from": "0xeeb3e0999d01f0d1ed465513e414725a357f6ae4",
        "to": "0x607483b50c5f06c25cdc316b6d1e071084eec9f5",
        "gas": "0x8f3d",
        "value": "0x0",
        "input": "0x095ea7b3000000000000000000000000000000000022d473030f116ddee9f6b43ac78ba3ffffffffffffffffffffffffffffffffffffffffffffffffffffffffffffffff",
        "nonce": "0xc",
        "chainId": "0x515"
      },
      "additionalContracts": [],
      "isFixedGasLimit": false
    },
    {
      "hash": "0x30cecb5b5b82b5cb2c8a0e50151b39c5605e780a07f744b6e7c2676b18f57892",
      "transactionType": "CALL",
      "contractName": null,
      "contractAddress": "0x993c7739f50899a997fef20860554b8a28113634",
      "function": "approve(address,uint256)",
      "arguments": [
        "0x000000000022D473030F116dDEE9F6B43aC78BA3",
        "115792089237316195423570985008687907853269984665640564039457584007913129639935"
      ],
      "transaction": {
        "from": "0xeeb3e0999d01f0d1ed465513e414725a357f6ae4",
        "to": "0x993c7739f50899a997fef20860554b8a28113634",
        "gas": "0x8f3d",
        "value": "0x0",
        "input": "0x095ea7b3000000000000000000000000000000000022d473030f116ddee9f6b43ac78ba3ffffffffffffffffffffffffffffffffffffffffffffffffffffffffffffffff",
        "nonce": "0xd",
        "chainId": "0x515"
      },
      "additionalContracts": [],
      "isFixedGasLimit": false
    },
    {
      "hash": "0xa3746e24513e8ab0f6c50130377bab6f839a1328f3786296889233efbdacb673",
      "transactionType": "CALL",
      "contractName": null,
      "contractAddress": "0x000000000022d473030f116ddee9f6b43ac78ba3",
      "function": "approve(address,address,uint160,uint48)",
      "arguments": [
        "0x607483B50C5F06c25cDC316b6d1E071084EeC9f5",
        "0xf969Aee60879C54bAAed9F3eD26147Db216Fd664",
        "1461501637330902918203684832716283019655932542975",
        "281474976710655"
      ],
      "transaction": {
        "from": "0xeeb3e0999d01f0d1ed465513e414725a357f6ae4",
        "to": "0x000000000022d473030f116ddee9f6b43ac78ba3",
        "gas": "0x96a0",
        "value": "0x0",
        "input": "0x87517c45000000000000000000000000607483b50c5f06c25cdc316b6d1e071084eec9f5000000000000000000000000f969aee60879c54baaed9f3ed26147db216fd664000000000000000000000000ffffffffffffffffffffffffffffffffffffffff0000000000000000000000000000000000000000000000000000ffffffffffff",
        "nonce": "0xe",
        "chainId": "0x515"
      },
      "additionalContracts": [],
      "isFixedGasLimit": false
    },
    {
      "hash": "0xa98bb78fbacab0507366ba4d45063a610a5bb38780ba8b74f922cdbae5ef21dd",
      "transactionType": "CALL",
      "contractName": null,
      "contractAddress": "0x000000000022d473030f116ddee9f6b43ac78ba3",
      "function": "approve(address,address,uint160,uint48)",
      "arguments": [
        "0x993C7739f50899A997fEF20860554b8a28113634",
        "0xf969Aee60879C54bAAed9F3eD26147Db216Fd664",
        "1461501637330902918203684832716283019655932542975",
        "281474976710655"
      ],
      "transaction": {
        "from": "0xeeb3e0999d01f0d1ed465513e414725a357f6ae4",
        "to": "0x000000000022d473030f116ddee9f6b43ac78ba3",
        "gas": "0x1112d",
        "value": "0x0",
        "input": "0x87517c45000000000000000000000000993c7739f50899a997fef20860554b8a28113634000000000000000000000000f969aee60879c54baaed9f3ed26147db216fd664000000000000000000000000ffffffffffffffffffffffffffffffffffffffff0000000000000000000000000000000000000000000000000000ffffffffffff",
        "nonce": "0xf",
        "chainId": "0x515"
      },
      "additionalContracts": [],
      "isFixedGasLimit": false
    },
    {
      "hash": "0x3792e16ecdeafa87a596f94ceecd04d684207452af919d8ece3fb26abde7a339",
      "transactionType": "CALL",
      "contractName": null,
      "contractAddress": "0xf969aee60879c54baaed9f3ed26147db216fd664",
      "function": "multicall(bytes[])",
      "arguments": [
        "[0xf7020405000000000000000000000000607483b50c5f06c25cdc316b6d1e071084eec9f5000000000000000000000000993c7739f50899a997fef20860554b8a281136340000000000000000000000000000000000000000000000000000000000800000000000000000000000000000000000000000000000000000000000000000003c0000000000000000000000006da2a701d2e134e27d6275cd003efb31a1a2ffff0000000000000000000000000000000000000001000000000000000000000000, 0xdd46508f00000000000000000000000000000000000000000000000000000000000000400000000000000000000000000000000000000000000000000000000069b9d3d70000000000000000000000000000000000000000000000000000000000000300000000000000000000000000000000000000000000000000000000000000004000000000000000000000000000000000000000000000000000000000000000800000000000000000000000000000000000000000000000000000000000000002020d00000000000000000000000000000000000000000000000000000000000000000000000000000000000000000000000000000000000000000000000000020000000000000000000000000000000000000000000000000000000000000040000000000000000000000000000000000000000000000000000000000000020000000000000000000000000000000000000000000000000000000000000001a0000000000000000000000000607483b50c5f06c25cdc316b6d1e071084eec9f5000000000000000000000000993c7739f50899a997fef20860554b8a281136340000000000000000000000000000000000000000000000000000000000800000000000000000000000000000000000000000000000000000000000000000003c0000000000000000000000006da2a701d2e134e27d6275cd003efb31a1a2fffffffffffffffffffffffffffffffffffffffffffffffffffffffffffffff2764c00000000000000000000000000000000000000000000000000000000000d89b4000000000000000000000000000000000000000000000a968163f0a57b40000000000000000000000000000000000000ffffffffffffffffffffffffffffffff00000000000000000000000000000000ffffffffffffffffffffffffffffffff000000000000000000000000eeb3e0999d01f0d1ed465513e414725a357f6ae4000000000000000000000000000000000000000000000000000000000000018000000000000000000000000000000000000000000000000000000000000000000000000000000000000000000000000000000000000000000000000000000040000000000000000000000000607483b50c5f06c25cdc316b6d1e071084eec9f5000000000000000000000000993c7739f50899a997fef20860554b8a28113634]"
      ],
      "transaction": {
        "from": "0xeeb3e0999d01f0d1ed465513e414725a357f6ae4",
        "to": "0xf969aee60879c54baaed9f3ed26147db216fd664",
        "gas": "0xba3c3",
        "value": "0x0",
        "input": "0xac9650d8000000000000000000000000000000000000000000000000000000000000002000000000000000000000000000000000000000000000000000000000000000020000000000000000000000000000000000000000000000000000000000000040000000000000000000000000000000000000000000000000000000000000014000000000000000000000000000000000000000000000000000000000000000c4f7020405000000000000000000000000607483b50c5f06c25cdc316b6d1e071084eec9f5000000000000000000000000993c7739f50899a997fef20860554b8a281136340000000000000000000000000000000000000000000000000000000000800000000000000000000000000000000000000000000000000000000000000000003c0000000000000000000000006da2a701d2e134e27d6275cd003efb31a1a2ffff0000000000000000000000000000000000000001000000000000000000000000000000000000000000000000000000000000000000000000000000000000000000000000000000000000000000000000000000000000000000000364dd46508f00000000000000000000000000000000000000000000000000000000000000400000000000000000000000000000000000000000000000000000000069b9d3d70000000000000000000000000000000000000000000000000000000000000300000000000000000000000000000000000000000000000000000000000000004000000000000000000000000000000000000000000000000000000000000000800000000000000000000000000000000000000000000000000000000000000002020d00000000000000000000000000000000000000000000000000000000000000000000000000000000000000000000000000000000000000000000000000020000000000000000000000000000000000000000000000000000000000000040000000000000000000000000000000000000000000000000000000000000020000000000000000000000000000000000000000000000000000000000000001a0000000000000000000000000607483b50c5f06c25cdc316b6d1e071084eec9f5000000000000000000000000993c7739f50899a997fef20860554b8a281136340000000000000000000000000000000000000000000000000000000000800000000000000000000000000000000000000000000000000000000000000000003c0000000000000000000000006da2a701d2e134e27d6275cd003efb31a1a2fffffffffffffffffffffffffffffffffffffffffffffffffffffffffffffff2764c00000000000000000000000000000000000000000000000000000000000d89b4000000000000000000000000000000000000000000000a968163f0a57b40000000000000000000000000000000000000ffffffffffffffffffffffffffffffff00000000000000000000000000000000ffffffffffffffffffffffffffffffff000000000000000000000000eeb3e0999d01f0d1ed465513e414725a357f6ae4000000000000000000000000000000000000000000000000000000000000018000000000000000000000000000000000000000000000000000000000000000000000000000000000000000000000000000000000000000000000000000000040000000000000000000000000607483b50c5f06c25cdc316b6d1e071084eec9f5000000000000000000000000993c7739f50899a997fef20860554b8a2811363400000000000000000000000000000000000000000000000000000000",
        "nonce": "0x10",
        "chainId": "0x515"
      },
      "additionalContracts": [],
      "isFixedGasLimit": false
    }
  ],
  "receipts": [
    {
      "status": "0x1",
      "cumulativeGasUsed": "0x451d2",
      "logs": [
        {
          "address": "0x607483b50c5f06c25cdc316b6d1e071084eec9f5",
          "topics": [
            "0x8c5be1e5ebec7d5bd14f71427d1e84f3dd0314c0f7b2291e5b200ac8c7c3b925",
            "0x000000000000000000000000eeb3e0999d01f0d1ed465513e414725a357f6ae4",
            "0x000000000000000000000000000000000022d473030f116ddee9f6b43ac78ba3"
          ],
          "data": "0xffffffffffffffffffffffffffffffffffffffffffffffffffffffffffffffff",
          "blockHash": "0xb351804420420f4dd5d00fd6add8812520f107c88da722bfdfd601eae3637f06",
          "blockNumber": "0x2cc2443",
          "blockTimestamp": "0x69b9d18f",
          "transactionHash": "0xa98bb78fbacab0507366ba4d45063a610a5bb38780ba8b74f922cdbae5ef21dd",
          "transactionIndex": "0x4",
          "logIndex": "0x2",
          "removed": false
        }
      ],
      "logsBloom": "0x00000000000000000000000000000000000000000000000800000000000000000000000000000000000000000000000000000000800000000000000000200020000000000000000000004000000000000000000000000800000000000000000000000000000000000000000000000080000000000000000000000000000000000000000000000000000000000000000000000001000000000000000000000000020000000000000000000000000000000000000000000000000000000000000000000100000000000000000000000000000000000000000000000000001000000010000000000000000000000000000000000000000000000000000000000000",
      "type": "0x2",
      "transactionHash": "0xa98bb78fbacab0507366ba4d45063a610a5bb38780ba8b74f922cdbae5ef21dd",
      "transactionIndex": "0x4",
      "blockHash": "0xb351804420420f4dd5d00fd6add8812520f107c88da722bfdfd601eae3637f06",
      "blockNumber": "0x2cc2443",
      "gasUsed": "0x67b4",
      "effectiveGasPrice": "0x7a121",
      "blobGasUsed": "0x9c40",
      "from": "0xeeb3e0999d01f0d1ed465513e414725a357f6ae4",
      "to": "0x607483b50c5f06c25cdc316b6d1e071084eec9f5",
      "contractAddress": null,
      "daFootprintGasScalar": "0x190",
      "l1BaseFeeScalar": "0x7d0",
      "l1BlobBaseFee": "0x1",
      "l1BlobBaseFeeScalar": "0xdbba0",
      "l1Fee": "0x76",
      "l1GasPrice": "0x9",
      "l1GasUsed": "0x640"
    },
    {
      "status": "0x1",
      "cumulativeGasUsed": "0x4b986",
      "logs": [
        {
          "address": "0x993c7739f50899a997fef20860554b8a28113634",
          "topics": [
            "0x8c5be1e5ebec7d5bd14f71427d1e84f3dd0314c0f7b2291e5b200ac8c7c3b925",
            "0x000000000000000000000000eeb3e0999d01f0d1ed465513e414725a357f6ae4",
            "0x000000000000000000000000000000000022d473030f116ddee9f6b43ac78ba3"
          ],
          "data": "0xffffffffffffffffffffffffffffffffffffffffffffffffffffffffffffffff",
          "blockHash": "0xb351804420420f4dd5d00fd6add8812520f107c88da722bfdfd601eae3637f06",
          "blockNumber": "0x2cc2443",
          "blockTimestamp": "0x69b9d18f",
          "transactionHash": "0x30cecb5b5b82b5cb2c8a0e50151b39c5605e780a07f744b6e7c2676b18f57892",
          "transactionIndex": "0x5",
          "logIndex": "0x3",
          "removed": false
        }
      ],
      "logsBloom": "0x00000000000000000000000000000000000000000000000000000000000000000000000000000000000000000000000000000000800000000000000000200020000000000000000000004000000000000000000000000800000000000000000000000000000000000000000000000080000000000000000000000000000000000000000000000000000000000000000000000000000000000000000000000000020000000000000000000000000000000001000000000000000000000000000000000100000000000000000000000000000000000000040000000000000020000010000000000000000000000000000000000000000000000000000000000000",
      "type": "0x2",
      "transactionHash": "0x30cecb5b5b82b5cb2c8a0e50151b39c5605e780a07f744b6e7c2676b18f57892",
      "transactionIndex": "0x5",
      "blockHash": "0xb351804420420f4dd5d00fd6add8812520f107c88da722bfdfd601eae3637f06",
      "blockNumber": "0x2cc2443",
      "gasUsed": "0x67b4",
      "effectiveGasPrice": "0x7a121",
      "blobGasUsed": "0x9c40",
      "from": "0xeeb3e0999d01f0d1ed465513e414725a357f6ae4",
      "to": "0x993c7739f50899a997fef20860554b8a28113634",
      "contractAddress": null,
      "daFootprintGasScalar": "0x190",
      "l1BaseFeeScalar": "0x7d0",
      "l1BlobBaseFee": "0x1",
      "l1BlobBaseFeeScalar": "0xdbba0",
      "l1Fee": "0x76",
      "l1GasPrice": "0x9",
      "l1GasUsed": "0x640"
    },
    {
      "status": "0x1",
      "cumulativeGasUsed": "0x52694",
      "logs": [
        {
          "address": "0x000000000022d473030f116ddee9f6b43ac78ba3",
          "topics": [
            "0xda9fa7c1b00402c17d0161b249b1ab8bbec047c5a52207b9c112deffd817036b",
            "0x000000000000000000000000eeb3e0999d01f0d1ed465513e414725a357f6ae4",
            "0x000000000000000000000000607483b50c5f06c25cdc316b6d1e071084eec9f5",
            "0x000000000000000000000000f969aee60879c54baaed9f3ed26147db216fd664"
          ],
          "data": "0x000000000000000000000000ffffffffffffffffffffffffffffffffffffffff0000000000000000000000000000000000000000000000000000ffffffffffff",
          "blockHash": "0xb351804420420f4dd5d00fd6add8812520f107c88da722bfdfd601eae3637f06",
          "blockNumber": "0x2cc2443",
          "blockTimestamp": "0x69b9d18f",
          "transactionHash": "0xa3746e24513e8ab0f6c50130377bab6f839a1328f3786296889233efbdacb673",
          "transactionIndex": "0x6",
          "logIndex": "0x4",
          "removed": false
        }
      ],
      "logsBloom": "0x00010000000000000000000000000000000000000000000000000000000000100000000000000000000000000000000000000000000000000000000020080020000000000000000000000000000000000000000000000000000000001000000000000000000000000000000000000080000000000040000000000000000000000020000000000000000000000000000000000000000000000000000000000000000000000000000000000000000000000000000000000000000000080000000000000100000000000000000000000000000000000000000040000000000000000000000000000000000000000000000000000000000000200000000000002400",
      "type": "0x2",
      "transactionHash": "0xa3746e24513e8ab0f6c50130377bab6f839a1328f3786296889233efbdacb673",
      "transactionIndex": "0x6",
      "blockHash": "0xb351804420420f4dd5d00fd6add8812520f107c88da722bfdfd601eae3637f06",
      "blockNumber": "0x2cc2443",
      "gasUsed": "0x6d0e",
      "effectiveGasPrice": "0x7a121",
      "blobGasUsed": "0xa730",
      "from": "0xeeb3e0999d01f0d1ed465513e414725a357f6ae4",
      "to": "0x000000000022d473030f116ddee9f6b43ac78ba3",
      "contractAddress": null,
      "daFootprintGasScalar": "0x190",
      "l1BaseFeeScalar": "0x7d0",
      "l1BlobBaseFee": "0x1",
      "l1BlobBaseFeeScalar": "0xdbba0",
      "l1Fee": "0x80",
      "l1GasPrice": "0x9",
      "l1GasUsed": "0x6bf"
    },
    {
      "status": "0x1",
      "cumulativeGasUsed": "0x5e15e",
      "logs": [
        {
          "address": "0x000000000022d473030f116ddee9f6b43ac78ba3",
          "topics": [
            "0xda9fa7c1b00402c17d0161b249b1ab8bbec047c5a52207b9c112deffd817036b",
            "0x000000000000000000000000eeb3e0999d01f0d1ed465513e414725a357f6ae4",
            "0x000000000000000000000000993c7739f50899a997fef20860554b8a28113634",
            "0x000000000000000000000000f969aee60879c54baaed9f3ed26147db216fd664"
          ],
          "data": "0x000000000000000000000000ffffffffffffffffffffffffffffffffffffffff0000000000000000000000000000000000000000000000000000ffffffffffff",
          "blockHash": "0xb351804420420f4dd5d00fd6add8812520f107c88da722bfdfd601eae3637f06",
          "blockNumber": "0x2cc2443",
          "blockTimestamp": "0x69b9d18f",
          "transactionHash": "0x472361eb39bac2efa02d5b5b0cd2361710dadaad06a62cab12babcf9ea417be6",
          "transactionIndex": "0x7",
          "logIndex": "0x5",
          "removed": false
        }
      ],
      "logsBloom": "0x00010000000000000000000000000000000000000000000000000000000000000000000000000000000000000000000000040000000000000000000000088020000000000000000000000000000000000000000000000000000000001000000000002000000000000000000000000080000000000040000000000000000000000020000000000000000000000000000000000000000000000000000000000000000000000000000000000000000000000000000000000000000000080000000000000100000000000000000000000000000000000000000040000000000000000000000000000000000000000000000000000000000000000000000000002400",
      "type": "0x2",
      "transactionHash": "0x472361eb39bac2efa02d5b5b0cd2361710dadaad06a62cab12babcf9ea417be6",
      "transactionIndex": "0x7",
      "blockHash": "0xb351804420420f4dd5d00fd6add8812520f107c88da722bfdfd601eae3637f06",
      "blockNumber": "0x2cc2443",
      "gasUsed": "0xbaca",
      "effectiveGasPrice": "0x7a121",
      "blobGasUsed": "0xa8c0",
      "from": "0xeeb3e0999d01f0d1ed465513e414725a357f6ae4",
      "to": "0x000000000022d473030f116ddee9f6b43ac78ba3",
      "contractAddress": null,
      "daFootprintGasScalar": "0x190",
      "l1BaseFeeScalar": "0x7d0",
      "l1BlobBaseFee": "0x1",
      "l1BlobBaseFeeScalar": "0xdbba0",
      "l1Fee": "0x81",
      "l1GasPrice": "0x9",
      "l1GasUsed": "0x6cd"
    },
    {
      "status": "0x1",
      "cumulativeGasUsed": "0xdd6d0",
      "logs": [
        {
          "address": "0x6da2a701d2e134e27d6275cd003efb31a1a2ffff",
          "topics": [
            "0xd8b724ce3a95060bbd95c6ebf6da638aedc05ed9b2ba2933c871780244ee2bac",
            "0x89304515e0f7184e2633910af07bbd3d05bcb9b117d79de7b22880a9e009a12d",
            "0x000000000000000000000000f969aee60879c54baaed9f3ed26147db216fd664"
          ],
          "data": "0x00000000000000000000000000000000000000000000000000000000000000000000000000000000000000000000000000000000000000000000000000000000",
          "blockHash": "0xb351804420420f4dd5d00fd6add8812520f107c88da722bfdfd601eae3637f06",
          "blockNumber": "0x2cc2443",
          "blockTimestamp": "0x69b9d18f",
          "transactionHash": "0x3792e16ecdeafa87a596f94ceecd04d684207452af919d8ece3fb26abde7a339",
          "transactionIndex": "0x8",
          "logIndex": "0x6",
          "removed": false
        },
        {
          "address": "0x00b036b58a818b1bc34d502d3fe730db729e62ac",
          "topics": [
            "0xdd466e674ea557f56295e2d0218a125ea4b4f0f6f3307b95f85e6110838d6438",
            "0x89304515e0f7184e2633910af07bbd3d05bcb9b117d79de7b22880a9e009a12d",
            "0x000000000000000000000000607483b50c5f06c25cdc316b6d1e071084eec9f5",
            "0x000000000000000000000000993c7739f50899a997fef20860554b8a28113634"
          ],
          "data": "0x0000000000000000000000000000000000000000000000000000000000800000000000000000000000000000000000000000000000000000000000000000003c0000000000000000000000006da2a701d2e134e27d6275cd003efb31a1a2ffff00000000000000000000000000000000000000010000000000000000000000000000000000000000000000000000000000000000000000000000000000000000",
          "blockHash": "0xb351804420420f4dd5d00fd6add8812520f107c88da722bfdfd601eae3637f06",
          "blockNumber": "0x2cc2443",
          "blockTimestamp": "0x69b9d18f",
          "transactionHash": "0x3792e16ecdeafa87a596f94ceecd04d684207452af919d8ece3fb26abde7a339",
          "transactionIndex": "0x8",
          "logIndex": "0x7",
          "removed": false
        },
        {
          "address": "0xf969aee60879c54baaed9f3ed26147db216fd664",
          "topics": [
            "0xddf252ad1be2c89b69c2b068fc378daa952ba7f163c4a11628f55a4df523b3ef",
            "0x0000000000000000000000000000000000000000000000000000000000000000",
            "0x000000000000000000000000eeb3e0999d01f0d1ed465513e414725a357f6ae4",
            "0x0000000000000000000000000000000000000000000000000000000000001c3f"
          ],
          "data": "0x",
          "blockHash": "0xb351804420420f4dd5d00fd6add8812520f107c88da722bfdfd601eae3637f06",
          "blockNumber": "0x2cc2443",
          "blockTimestamp": "0x69b9d18f",
          "transactionHash": "0x3792e16ecdeafa87a596f94ceecd04d684207452af919d8ece3fb26abde7a339",
          "transactionIndex": "0x8",
          "logIndex": "0x8",
          "removed": false
        },
        {
          "address": "0x00b036b58a818b1bc34d502d3fe730db729e62ac",
          "topics": [
            "0xf208f4912782fd25c7f114ca3723a2d5dd6f3bcc3ac8db5af63baa85f711d5ec",
            "0x89304515e0f7184e2633910af07bbd3d05bcb9b117d79de7b22880a9e009a12d",
            "0x000000000000000000000000f969aee60879c54baaed9f3ed26147db216fd664"
          ],
          "data": "0xfffffffffffffffffffffffffffffffffffffffffffffffffffffffffff2764c00000000000000000000000000000000000000000000000000000000000d89b4000000000000000000000000000000000000000000000a968163f0a57b4000000000000000000000000000000000000000000000000000000000000000001c3f",
          "blockHash": "0xb351804420420f4dd5d00fd6add8812520f107c88da722bfdfd601eae3637f06",
          "blockNumber": "0x2cc2443",
          "blockTimestamp": "0x69b9d18f",
          "transactionHash": "0x3792e16ecdeafa87a596f94ceecd04d684207452af919d8ece3fb26abde7a339",
          "transactionIndex": "0x8",
          "logIndex": "0x9",
          "removed": false
        },
        {
          "address": "0x607483b50c5f06c25cdc316b6d1e071084eec9f5",
          "topics": [
            "0xddf252ad1be2c89b69c2b068fc378daa952ba7f163c4a11628f55a4df523b3ef",
            "0x000000000000000000000000eeb3e0999d01f0d1ed465513e414725a357f6ae4",
            "0x00000000000000000000000000b036b58a818b1bc34d502d3fe730db729e62ac"
          ],
          "data": "0x000000000000000000000000000000000000000000000a968163f0a57b3ff563",
          "blockHash": "0xb351804420420f4dd5d00fd6add8812520f107c88da722bfdfd601eae3637f06",
          "blockNumber": "0x2cc2443",
          "blockTimestamp": "0x69b9d18f",
          "transactionHash": "0x3792e16ecdeafa87a596f94ceecd04d684207452af919d8ece3fb26abde7a339",
          "transactionIndex": "0x8",
          "logIndex": "0xa",
          "removed": false
        },
        {
          "address": "0x993c7739f50899a997fef20860554b8a28113634",
          "topics": [
            "0xddf252ad1be2c89b69c2b068fc378daa952ba7f163c4a11628f55a4df523b3ef",
            "0x000000000000000000000000eeb3e0999d01f0d1ed465513e414725a357f6ae4",
            "0x00000000000000000000000000b036b58a818b1bc34d502d3fe730db729e62ac"
          ],
          "data": "0x000000000000000000000000000000000000000000000a968163f0a57b3ff563",
          "blockHash": "0xb351804420420f4dd5d00fd6add8812520f107c88da722bfdfd601eae3637f06",
          "blockNumber": "0x2cc2443",
          "blockTimestamp": "0x69b9d18f",
          "transactionHash": "0x3792e16ecdeafa87a596f94ceecd04d684207452af919d8ece3fb26abde7a339",
          "transactionIndex": "0x8",
          "logIndex": "0xb",
          "removed": false
        }
      ],
      "logsBloom": "0x00001000000000000000000000000000000000000000000800000000000000100000000000000000000000000000000000040000001000000000000020008020000000000000000020000008000000040000000000000000000000001000000000002000020000000000000000004880000000000040008000000010000000000000000001000008000000000008000000000401000004000000000000210000000004000000000000000000000000000801000000000028000000000000001000000102080000000000000000000000000000000008040000000000001020004000000100000000000000000000000004000000000002200002000000002010",
      "type": "0x2",
      "transactionHash": "0x3792e16ecdeafa87a596f94ceecd04d684207452af919d8ece3fb26abde7a339",
      "transactionIndex": "0x8",
      "blockHash": "0xb351804420420f4dd5d00fd6add8812520f107c88da722bfdfd601eae3637f06",
      "blockNumber": "0x2cc2443",
      "gasUsed": "0x7f572",
      "effectiveGasPrice": "0x7a121",
      "blobGasUsed": "0x1c9d0",
      "from": "0xeeb3e0999d01f0d1ed465513e414725a357f6ae4",
      "to": "0xf969aee60879c54baaed9f3ed26147db216fd664",
      "contractAddress": null,
      "daFootprintGasScalar": "0x190",
      "l1BaseFeeScalar": "0x7d0",
      "l1BlobBaseFee": "0x1",
      "l1BlobBaseFeeScalar": "0xdbba0",
      "l1Fee": "0x15c",
      "l1GasPrice": "0x9",
      "l1GasUsed": "0x125a"
    }
  ],
  "libraries": [],
  "pending": [],
  "returns": {
    "poolKey": {
      "internal_type": "struct PoolKey",
      "value": "(0x607483B50C5F06c25cDC316b6d1E071084EeC9f5, 0x993C7739f50899A997fEF20860554b8a28113634, 8388608, 60, 0x6DA2a701d2E134e27d6275CD003EfB31A1a2fFff)"
    },
    "poolId": {
      "internal_type": "PoolId",
      "value": "0x89304515e0f7184e2633910af07bbd3d05bcb9b117d79de7b22880a9e009a12d"
    }
  },
  "timestamp": 1773785488821,
  "chain": 1301,
  "commit": "d55e570"
}