{
  "transactions": [
    {
      "hash": "0x3f5c48c90ff715656d8f24aae775b4015d44f94248dfdec901fb48585f90b4f6",
      "transactionType": "CALL",
      "contractName": null,
      "contractAddress": "0x944d768ad5cf410260f8438905d6921b3fa45672",
      "function": "approve(address,uint256)",
      "arguments": [
        "0x9140a78c1A137c7fF1c151EC8231272aF78a99A4",
        "115792089237316195423570985008687907853269984665640564039457584007913129639935"
      ],
      "transaction": {
        "from": "0xeeb3e0999d01f0d1ed465513e414725a357f6ae4",
        "to": "0x944d768ad5cf410260f8438905d6921b3fa45672",
        "gas": "0x8f90",
        "value": "0x0",
        "input": "0x095ea7b30000000000000000000000009140a78c1a137c7ff1c151ec8231272af78a99a4ffffffffffffffffffffffffffffffffffffffffffffffffffffffffffffffff",
        "nonce": "0xa6",
        "chainId": "0x515"
      },
      "additionalContracts": [],
      "isFixedGasLimit": false
    },
    {
      "hash": "0xdc2ed9aeb641d52ddef46adf7ff57b80e910a6300a623aa06ba94009fad5b308",
      "transactionType": "CALL",
      "contractName": null,
      "contractAddress": "0x998af61cd0525b30c643308642df3f19634ca28c",
      "function": "approve(address,uint256)",
      "arguments": [
        "0x9140a78c1A137c7fF1c151EC8231272aF78a99A4",
        "115792089237316195423570985008687907853269984665640564039457584007913129639935"
      ],
      "transaction": {
        "from": "0xeeb3e0999d01f0d1ed465513e414725a357f6ae4",
        "to": "0x998af61cd0525b30c643308642df3f19634ca28c",
        "gas": "0x8f90",
        "value": "0x0",
        "input": "0x095ea7b30000000000000000000000009140a78c1a137c7ff1c151ec8231272af78a99a4ffffffffffffffffffffffffffffffffffffffffffffffffffffffffffffffff",
        "nonce": "0xa7",
        "chainId": "0x515"
      },
      "additionalContracts": [],
      "isFixedGasLimit": false
    },
    {
      "hash": "0x08ef19391f79de8a4404afbdfe6f23915b80c788554fd93a2a5a0dc5c76f0aba",
      "transactionType": "CALL",
      "contractName": null,
      "contractAddress": "0x9140a78c1a137c7ff1c151ec8231272af78a99a4",
      "function": "swap((address,address,uint24,int24,address),(bool,int256,uint160),(bool,bool),bytes)",
      "arguments": [
        "(0x944D768aD5Cf410260F8438905d6921B3FA45672, 0x998AF61cD0525b30c643308642Df3F19634ca28C, 0, 32767, 0x5dF0562d0f9FA211c3A10A7032026B4186a4bFFF)",
        "(true, -1000000000000000000000, 4295128740)",
        "(false, false)",
        "0x000000000000000000000000eeb3e0999d01f0d1ed465513e414725a357f6ae4"
      ],
      "transaction": {
        "from": "0xeeb3e0999d01f0d1ed465513e414725a357f6ae4",
        "to": "0x9140a78c1a137c7ff1c151ec8231272af78a99a4",
        "gas": "0x3a089",
        "value": "0x0",
        "input": "0x2229d0b4000000000000000000000000944d768ad5cf410260f8438905d6921b3fa45672000000000000000000000000998af61cd0525b30c643308642df3f19634ca28c00000000000000000000000000000000000000000000000000000000000000000000000000000000000000000000000000000000000000000000000000007fff0000000000000000000000005df0562d0f9fa211c3a10a7032026b4186a4bfff0000000000000000000000000000000000000000000000000000000000000001ffffffffffffffffffffffffffffffffffffffffffffffc9ca36523a2160000000000000000000000000000000000000000000000000000000000001000276a40000000000000000000000000000000000000000000000000000000000000000000000000000000000000000000000000000000000000000000000000000000000000000000000000000000000000000000000000000000000000000000001600000000000000000000000000000000000000000000000000000000000000020000000000000000000000000eeb3e0999d01f0d1ed465513e414725a357f6ae4",
        "nonce": "0xa8",
        "chainId": "0x515"
      },
      "additionalContracts": [],
      "isFixedGasLimit": false
    },
    {
      "hash": "0x949e279a1493c55105a876e323a99873c4c3b741056a840e267099d60c54f995",
      "transactionType": "CALL",
      "contractName": null,
      "contractAddress": "0x9140a78c1a137c7ff1c151ec8231272af78a99a4",
      "function": "swap((address,address,uint24,int24,address),(bool,int256,uint160),(bool,bool),bytes)",
      "arguments": [
        "(0x944D768aD5Cf410260F8438905d6921B3FA45672, 0x998AF61cD0525b30c643308642Df3F19634ca28C, 0, 32767, 0x5dF0562d0f9FA211c3A10A7032026B4186a4bFFF)",
        "(true, -10000000000000000000000, 4295128740)",
        "(false, false)",
        "0x000000000000000000000000eeb3e0999d01f0d1ed465513e414725a357f6ae4"
      ],
      "transaction": {
        "from": "0xeeb3e0999d01f0d1ed465513e414725a357f6ae4",
        "to": "0x9140a78c1a137c7ff1c151ec8231272af78a99a4",
        "gas": "0x38b15",
        "value": "0x0",
        "input": "0x2229d0b4000000000000000000000000944d768ad5cf410260f8438905d6921b3fa45672000000000000000000000000998af61cd0525b30c643308642df3f19634ca28c00000000000000000000000000000000000000000000000000000000000000000000000000000000000000000000000000000000000000000000000000007fff0000000000000000000000005df0562d0f9fa211c3a10a7032026b4186a4bfff0000000000000000000000000000000000000000000000000000000000000001fffffffffffffffffffffffffffffffffffffffffffffde1e61f36454dc0000000000000000000000000000000000000000000000000000000000001000276a40000000000000000000000000000000000000000000000000000000000000000000000000000000000000000000000000000000000000000000000000000000000000000000000000000000000000000000000000000000000000000000001600000000000000000000000000000000000000000000000000000000000000020000000000000000000000000eeb3e0999d01f0d1ed465513e414725a357f6ae4",
        "nonce": "0xa9",
        "chainId": "0x515"
      },
      "additionalContracts": [],
      "isFixedGasLimit": false
    },
    {
      "hash": "0x8c0227602abdf73a6110bed3a96406d06fd31704b5a75f66b1844841e6d7b13b",
      "transactionType": "CALL",
      "contractName": null,
      "contractAddress": "0x9140a78c1a137c7ff1c151ec8231272af78a99a4",
      "function": "swap((address,address,uint24,int24,address),(bool,int256,uint160),(bool,bool),bytes)",
      "arguments": [
        "(0x944D768aD5Cf410260F8438905d6921B3FA45672, 0x998AF61cD0525b30c643308642Df3F19634ca28C, 0, 32767, 0x5dF0562d0f9FA211c3A10A7032026B4186a4bFFF)",
        "(false, -50000000000000000000000, 1461446703485210103287273052203988822378723970341)",
        "(false, false)",
        "0x000000000000000000000000eeb3e0999d01f0d1ed465513e414725a357f6ae4"
      ],
      "transaction": {
        "from": "0xeeb3e0999d01f0d1ed465513e414725a357f6ae4",
        "to": "0x9140a78c1a137c7ff1c151ec8231272af78a99a4",
        "gas": "0x38c8c",
        "value": "0x0",
        "input": "0x2229d0b4000000000000000000000000944d768ad5cf410260f8438905d6921b3fa45672000000000000000000000000998af61cd0525b30c643308642df3f19634ca28c00000000000000000000000000000000000000000000000000000000000000000000000000000000000000000000000000000000000000000000000000007fff0000000000000000000000005df0562d0f9fa211c3a10a7032026b4186a4bfff0000000000000000000000000000000000000000000000000000000000000000fffffffffffffffffffffffffffffffffffffffffffff5697e9c0f5a84c00000000000000000000000000000fffd8963efd1fc6a506488495d951d5263988d250000000000000000000000000000000000000000000000000000000000000000000000000000000000000000000000000000000000000000000000000000000000000000000000000000000000000000000000000000000000000000000001600000000000000000000000000000000000000000000000000000000000000020000000000000000000000000eeb3e0999d01f0d1ed465513e414725a357f6ae4",
        "nonce": "0xaa",
        "chainId": "0x515"
      },
      "additionalContracts": [],
      "isFixedGasLimit": false
    }
  ],
  "receipts": [
    {
      "status": "0x1",
      "cumulativeGasUsed": "0x2e1dc",
      "logs": [
        {
          "address": "0x944d768ad5cf410260f8438905d6921b3fa45672",
          "topics": [
            "0x8c5be1e5ebec7d5bd14f71427d1e84f3dd0314c0f7b2291e5b200ac8c7c3b925",
            "0x000000000000000000000000eeb3e0999d01f0d1ed465513e414725a357f6ae4",
            "0x0000000000000000000000009140a78c1a137c7ff1c151ec8231272af78a99a4"
          ],
          "data": "0xffffffffffffffffffffffffffffffffffffffffffffffffffffffffffffffff",
          "blockHash": "0x4a6b50b2b3132df2b11783675b21c19421bc4bd0f88be94e0f025fe390c67950",
          "blockNumber": "0x2cef092",
          "blockTimestamp": "0x69bc9dde",
          "transactionHash": "0x08ef19391f79de8a4404afbdfe6f23915b80c788554fd93a2a5a0dc5c76f0aba",
          "transactionIndex": "0x3",
          "logIndex": "0x1",
          "removed": false
        }
      ],
      "logsBloom": "0x00000000000000000000000000000000000000000000000000000002080000000000000000000000000000000000000000000000000000000000000000200020000000000000000000000000000000000000000000000000004000000000000000000000000000000000000000000080000000000000000000000000000000000000000000000000000000000000000000000000000000000000000000000000020000000000000000010000000000000000000000000000000000000000000000000100000000000000000000000000000000000000000000000000000000000014004000000000000000000000000000000000000000000000000000000000",
      "type": "0x2",
      "transactionHash": "0x08ef19391f79de8a4404afbdfe6f23915b80c788554fd93a2a5a0dc5c76f0aba",
      "transactionIndex": "0x3",
      "blockHash": "0x4a6b50b2b3132df2b11783675b21c19421bc4bd0f88be94e0f025fe390c67950",
      "blockNumber": "0x2cef092",
      "gasUsed": "0x67f0",
      "effectiveGasPrice": "0x7a121",
      "blobGasUsed": "0x9c40",
      "from": "0xeeb3e0999d01f0d1ed465513e414725a357f6ae4",
      "to": "0x944d768ad5cf410260f8438905d6921b3fa45672",
      "contractAddress": null,
      "daFootprintGasScalar": "0x190",
      "l1BaseFeeScalar": "0x7d0",
      "l1BlobBaseFee": "0x1",
      "l1BlobBaseFeeScalar": "0xdbba0",
      "l1Fee": "0x76",
      "l1GasPrice": "0x9",
      "l1GasUsed": "0x640"
    },
    {
      "status": "0x1",
      "cumulativeGasUsed": "0x349cc",
      "logs": [
        {
          "address": "0x998af61cd0525b30c643308642df3f19634ca28c",
          "topics": [
            "0x8c5be1e5ebec7d5bd14f71427d1e84f3dd0314c0f7b2291e5b200ac8c7c3b925",
            "0x000000000000000000000000eeb3e0999d01f0d1ed465513e414725a357f6ae4",
            "0x0000000000000000000000009140a78c1a137c7ff1c151ec8231272af78a99a4"
          ],
          "data": "0xffffffffffffffffffffffffffffffffffffffffffffffffffffffffffffffff",
          "blockHash": "0x4a6b50b2b3132df2b11783675b21c19421bc4bd0f88be94e0f025fe390c67950",
          "blockNumber": "0x2cef092",
          "blockTimestamp": "0x69bc9dde",
          "transactionHash": "0x3f5c48c90ff715656d8f24aae775b4015d44f94248dfdec901fb48585f90b4f6",
          "transactionIndex": "0x4",
          "logIndex": "0x2",
          "removed": false
        }
      ],
      "logsBloom": "0x00000000000000000000000000000000000000000000000000000000080000000000000000000000010000000000000000000000000000000000000000200020000000000000000000000000000000000000000000000000004000000000000020000000000000000000000000000080000000000000000000000000000000000000000000000000000000000000000000000000000000000000000000000000020000000000000000010000000000010000000000000000000000000000000000000100000000000000000000000000000000000000000000000000000000000010000000000000000000000000000000000000000000000000000000000000",
      "type": "0x2",
      "transactionHash": "0x3f5c48c90ff715656d8f24aae775b4015d44f94248dfdec901fb48585f90b4f6",
      "transactionIndex": "0x4",
      "blockHash": "0x4a6b50b2b3132df2b11783675b21c19421bc4bd0f88be94e0f025fe390c67950",
      "blockNumber": "0x2cef092",
      "gasUsed": "0x67f0",
      "effectiveGasPrice": "0x7a121",
      "blobGasUsed": "0x9c40",
      "from": "0xeeb3e0999d01f0d1ed465513e414725a357f6ae4",
      "to": "0x998af61cd0525b30c643308642df3f19634ca28c",
      "contractAddress": null,
      "daFootprintGasScalar": "0x190",
      "l1BaseFeeScalar": "0x7d0",
      "l1BlobBaseFee": "0x1",
      "l1BlobBaseFeeScalar": "0xdbba0",
      "l1Fee": "0x76",
      "l1GasPrice": "0x9",
      "l1GasUsed": "0x640"
    },
    {
      "status": "0x1",
      "cumulativeGasUsed": "0x5ea0b",
      "logs": [
        {
          "address": "0x00b036b58a818b1bc34d502d3fe730db729e62ac",
          "topics": [
            "0x40e9cecb9f5f1f1c5b9c97dec2917b7ee92e57ba5563708daca94dd84ad7112f",
            "0xc622d94e3d7a976e145d4491eddc5e869cb4843f75ddc733dd030f3c3458b397",
            "0x0000000000000000000000009140a78c1a137c7ff1c151ec8231272af78a99a4"
          ],
          "data": "0xffffffffffffffffffffffffffffffffffffffffffffffc9ca36523a216000000000000000000000000000000000000000000000000000ad3296ede617bb51120000000000000000000000000000000000000001c17a5f142a6fec90282b68b8000000000000000000000000000000000000000000000a968163f0a57b4000000000000000000000000000000000000000000000000000000000000000002bfa0000000000000000000000000000000000000000000000000000000000000000",
          "blockHash": "0x4a6b50b2b3132df2b11783675b21c19421bc4bd0f88be94e0f025fe390c67950",
          "blockNumber": "0x2cef092",
          "blockTimestamp": "0x69bc9dde",
          "transactionHash": "0xdc2ed9aeb641d52ddef46adf7ff57b80e910a6300a623aa06ba94009fad5b308",
          "transactionIndex": "0x5",
          "logIndex": "0x3",
          "removed": false
        },
        {
          "address": "0x4197c1cea5f404bc586387768151b4cc2f8d8040",
          "topics": [
            "0xc3d58168c5ae7397731d063d5bbf3d657854427343f4c083240f7aacaa2d0f62",
            "0x0000000000000000000000005df0562d0f9fa211c3a10a7032026b4186a4bfff",
            "0x0000000000000000000000000000000000000000000000000000000000000000",
            "0x000000000000000000000000eeb3e0999d01f0d1ed465513e414725a357f6ae4"
          ],
          "data": "0xc622d94e3d7a976e145d4491eddc5e869cb4843f75ddc733dd030f3c3458b39700000000000000000000000000000000000000000000000ad78ebc5ac6200000",
          "blockHash": "0x4a6b50b2b3132df2b11783675b21c19421bc4bd0f88be94e0f025fe390c67950",
          "blockNumber": "0x2cef092",
          "blockTimestamp": "0x69bc9dde",
          "transactionHash": "0xdc2ed9aeb641d52ddef46adf7ff57b80e910a6300a623aa06ba94009fad5b308",
          "transactionIndex": "0x5",
          "logIndex": "0x4",
          "removed": false
        },
        {
          "address": "0x944d768ad5cf410260f8438905d6921b3fa45672",
          "topics": [
            "0xddf252ad1be2c89b69c2b068fc378daa952ba7f163c4a11628f55a4df523b3ef",
            "0x000000000000000000000000eeb3e0999d01f0d1ed465513e414725a357f6ae4",
            "0x00000000000000000000000000b036b58a818b1bc34d502d3fe730db729e62ac"
          ],
          "data": "0x00000000000000000000000000000000000000000000003635c9adc5dea00000",
          "blockHash": "0x4a6b50b2b3132df2b11783675b21c19421bc4bd0f88be94e0f025fe390c67950",
          "blockNumber": "0x2cef092",
          "blockTimestamp": "0x69bc9dde",
          "transactionHash": "0xdc2ed9aeb641d52ddef46adf7ff57b80e910a6300a623aa06ba94009fad5b308",
          "transactionIndex": "0x5",
          "logIndex": "0x5",
          "removed": false
        },
        {
          "address": "0x998af61cd0525b30c643308642df3f19634ca28c",
          "topics": [
            "0xddf252ad1be2c89b69c2b068fc378daa952ba7f163c4a11628f55a4df523b3ef",
            "0x00000000000000000000000000b036b58a818b1bc34d502d3fe730db729e62ac",
            "0x000000000000000000000000eeb3e0999d01f0d1ed465513e414725a357f6ae4"
          ],
          "data": "0x0000000000000000000000000000000000000000000000ad3296ede617bb5112",
          "blockHash": "0x4a6b50b2b3132df2b11783675b21c19421bc4bd0f88be94e0f025fe390c67950",
          "blockNumber": "0x2cef092",
          "blockTimestamp": "0x69bc9dde",
          "transactionHash": "0xdc2ed9aeb641d52ddef46adf7ff57b80e910a6300a623aa06ba94009fad5b308",
          "transactionIndex": "0x5",
          "logIndex": "0x6",
          "removed": false
        }
      ],
      "logsBloom": "0x00000000000000000000000000000000000000000000080100000002080000000000000000000000010000000000100000000000041000000000000000002020000000000000010000000008000000000000000002000020004000000000000020000000020000000000000000004880000000000000000000000010000000000000000000000000000000000008000000000000000000000000000000000000000000000000000000010001000000010000000000000060000000000020000000000102000000000000000000000000000000000008000000000000000020040004004000000000004000000000000000000000000002000000080000000010",
      "type": "0x2",
      "transactionHash": "0xdc2ed9aeb641d52ddef46adf7ff57b80e910a6300a623aa06ba94009fad5b308",
      "transactionIndex": "0x5",
      "blockHash": "0x4a6b50b2b3132df2b11783675b21c19421bc4bd0f88be94e0f025fe390c67950",
      "blockNumber": "0x2cef092",
      "gasUsed": "0x2a03f",
      "effectiveGasPrice": "0x7a121",
      "blobGasUsed": "0x12110",
      "from": "0xeeb3e0999d01f0d1ed465513e414725a357f6ae4",
      "to": "0x9140a78c1a137c7ff1c151ec8231272af78a99a4",
      "contractAddress": null,
      "daFootprintGasScalar": "0x190",
      "l1BaseFeeScalar": "0x7d0",
      "l1BlobBaseFee": "0x1",
      "l1BlobBaseFeeScalar": "0xdbba0",
      "l1Fee": "0xdc",
      "l1GasPrice": "0x9",
      "l1GasUsed": "0xb9c"
    },
    {
      "status": "0x1",
      "cumulativeGasUsed": "0x87ac2",
      "logs": [
        {
          "address": "0x00b036b58a818b1bc34d502d3fe730db729e62ac",
          "topics": [
            "0x40e9cecb9f5f1f1c5b9c97dec2917b7ee92e57ba5563708daca94dd84ad7112f",
            "0xc622d94e3d7a976e145d4491eddc5e869cb4843f75ddc733dd030f3c3458b397",
            "0x0000000000000000000000009140a78c1a137c7ff1c151ec8231272af78a99a4"
          ],
          "data": "0xfffffffffffffffffffffffffffffffffffffffffffffde1e61f36454dc000000000000000000000000000000000000000000000000004d4d60f17e164f64aa100000000000000000000000000000000000000014ca9820209b5cb9cfb0669db000000000000000000000000000000000000000000000a968163f0a57b40000000000000000000000000000000000000000000000000000000000000000014770000000000000000000000000000000000000000000000000000000000000000",
          "blockHash": "0x4a6b50b2b3132df2b11783675b21c19421bc4bd0f88be94e0f025fe390c67950",
          "blockNumber": "0x2cef092",
          "blockTimestamp": "0x69bc9dde",
          "transactionHash": "0x8c0227602abdf73a6110bed3a96406d06fd31704b5a75f66b1844841e6d7b13b",
          "transactionIndex": "0x6",
          "logIndex": "0x7",
          "removed": false
        },
        {
          "address": "0x4197c1cea5f404bc586387768151b4cc2f8d8040",
          "topics": [
            "0xc3d58168c5ae7397731d063d5bbf3d657854427343f4c083240f7aacaa2d0f62",
            "0x0000000000000000000000005df0562d0f9fa211c3a10a7032026b4186a4bfff",
            "0x0000000000000000000000000000000000000000000000000000000000000000",
            "0x000000000000000000000000eeb3e0999d01f0d1ed465513e414725a357f6ae4"
          ],
          "data": "0xc622d94e3d7a976e145d4491eddc5e869cb4843f75ddc733dd030f3c3458b39700000000000000000000000000000000000000000000006c6b935b8bbd400000",
          "blockHash": "0x4a6b50b2b3132df2b11783675b21c19421bc4bd0f88be94e0f025fe390c67950",
          "blockNumber": "0x2cef092",
          "blockTimestamp": "0x69bc9dde",
          "transactionHash": "0x8c0227602abdf73a6110bed3a96406d06fd31704b5a75f66b1844841e6d7b13b",
          "transactionIndex": "0x6",
          "logIndex": "0x8",
          "removed": false
        },
        {
          "address": "0x944d768ad5cf410260f8438905d6921b3fa45672",
          "topics": [
            "0xddf252ad1be2c89b69c2b068fc378daa952ba7f163c4a11628f55a4df523b3ef",
            "0x000000000000000000000000eeb3e0999d01f0d1ed465513e414725a357f6ae4",
            "0x00000000000000000000000000b036b58a818b1bc34d502d3fe730db729e62ac"
          ],
          "data": "0x00000000000000000000000000000000000000000000021e19e0c9bab2400000",
          "blockHash": "0x4a6b50b2b3132df2b11783675b21c19421bc4bd0f88be94e0f025fe390c67950",
          "blockNumber": "0x2cef092",
          "blockTimestamp": "0x69bc9dde",
          "transactionHash": "0x8c0227602abdf73a6110bed3a96406d06fd31704b5a75f66b1844841e6d7b13b",
          "transactionIndex": "0x6",
          "logIndex": "0x9",
          "removed": false
        },
        {
          "address": "0x998af61cd0525b30c643308642df3f19634ca28c",
          "topics": [
            "0xddf252ad1be2c89b69c2b068fc378daa952ba7f163c4a11628f55a4df523b3ef",
            "0x00000000000000000000000000b036b58a818b1bc34d502d3fe730db729e62ac",
            "0x000000000000000000000000eeb3e0999d01f0d1ed465513e414725a357f6ae4"
          ],
          "data": "0x0000000000000000000000000000000000000000000004d4d60f17e164f64aa1",
          "blockHash": "0x4a6b50b2b3132df2b11783675b21c19421bc4bd0f88be94e0f025fe390c67950",
          "blockNumber": "0x2cef092",
          "blockTimestamp": "0x69bc9dde",
          "transactionHash": "0x8c0227602abdf73a6110bed3a96406d06fd31704b5a75f66b1844841e6d7b13b",
          "transactionIndex": "0x6",
          "logIndex": "0xa",
          "removed": false
        }
      ],
      "logsBloom": "0x00000000000000000000000000000000000000000000080100000002080000000000000000000000010000000000100000000000041000000000000000002020000000000000010000000008000000000000000002000020004000000000000020000000020000000000000000004880000000000000000000000010000000000000000000000000000000000008000000000000000000000000000000000000000000000000000000010001000000010000000000000060000000000020000000000102000000000000000000000000000000000008000000000000000020040004004000000000004000000000000000000000000002000000080000000010",
      "type": "0x2",
      "transactionHash": "0x8c0227602abdf73a6110bed3a96406d06fd31704b5a75f66b1844841e6d7b13b",
      "transactionIndex": "0x6",
      "blockHash": "0x4a6b50b2b3132df2b11783675b21c19421bc4bd0f88be94e0f025fe390c67950",
      "blockNumber": "0x2cef092",
      "gasUsed": "0x290b7",
      "effectiveGasPrice": "0x7a121",
      "blobGasUsed": "0x11f80",
      "from": "0xeeb3e0999d01f0d1ed465513e414725a357f6ae4",
      "to": "0x9140a78c1a137c7ff1c151ec8231272af78a99a4",
      "contractAddress": null,
      "daFootprintGasScalar": "0x190",
      "l1BaseFeeScalar": "0x7d0",
      "l1BlobBaseFee": "0x1",
      "l1BlobBaseFeeScalar": "0xdbba0",
      "l1Fee": "0xda",
      "l1GasPrice": "0x9",
      "l1GasUsed": "0xb81"
    },
    {
      "status": "0x1",
      "cumulativeGasUsed": "0xb0c88",
      "logs": [
        {
          "address": "0x00b036b58a818b1bc34d502d3fe730db729e62ac",
          "topics": [
            "0x40e9cecb9f5f1f1c5b9c97dec2917b7ee92e57ba5563708daca94dd84ad7112f",
            "0xc622d94e3d7a976e145d4491eddc5e869cb4843f75ddc733dd030f3c3458b397",
            "0x0000000000000000000000009140a78c1a137c7ff1c151ec8231272af78a99a4"
          ],
          "data": "0x00000000000000000000000000000000000000000000038b1c932adec69ee6effffffffffffffffffffffffffffffffffffffffffffff5697e9c0f5a84c0000000000000000000000000000000000000000000024ca9820209b5cb9cfb0669db000000000000000000000000000000000000000000000a968163f0a57b400000000000000000000000000000000000000000000000000000000000000000410e0000000000000000000000000000000000000000000000000000000000000000",
          "blockHash": "0x4a6b50b2b3132df2b11783675b21c19421bc4bd0f88be94e0f025fe390c67950",
          "blockNumber": "0x2cef092",
          "blockTimestamp": "0x69bc9dde",
          "transactionHash": "0x949e279a1493c55105a876e323a99873c4c3b741056a840e267099d60c54f995",
          "transactionIndex": "0x7",
          "logIndex": "0xb",
          "removed": false
        },
        {
          "address": "0x4197c1cea5f404bc586387768151b4cc2f8d8040",
          "topics": [
            "0xc3d58168c5ae7397731d063d5bbf3d657854427343f4c083240f7aacaa2d0f62",
            "0x0000000000000000000000005df0562d0f9fa211c3a10a7032026b4186a4bfff",
            "0x0000000000000000000000000000000000000000000000000000000000000000",
            "0x000000000000000000000000eeb3e0999d01f0d1ed465513e414725a357f6ae4"
          ],
          "data": "0xc622d94e3d7a976e145d4491eddc5e869cb4843f75ddc733dd030f3c3458b39733333333333333333333333333333333333333333333327dc715c439d8469e9d",
          "blockHash": "0x4a6b50b2b3132df2b11783675b21c19421bc4bd0f88be94e0f025fe390c67950",
          "blockNumber": "0x2cef092",
          "blockTimestamp": "0x69bc9dde",
          "transactionHash": "0x949e279a1493c55105a876e323a99873c4c3b741056a840e267099d60c54f995",
          "transactionIndex": "0x7",
          "logIndex": "0xc",
          "removed": false
        },
        {
          "address": "0x998af61cd0525b30c643308642df3f19634ca28c",
          "topics": [
            "0xddf252ad1be2c89b69c2b068fc378daa952ba7f163c4a11628f55a4df523b3ef",
            "0x000000000000000000000000eeb3e0999d01f0d1ed465513e414725a357f6ae4",
            "0x00000000000000000000000000b036b58a818b1bc34d502d3fe730db729e62ac"
          ],
          "data": "0x000000000000000000000000000000000000000000000a968163f0a57b400000",
          "blockHash": "0x4a6b50b2b3132df2b11783675b21c19421bc4bd0f88be94e0f025fe390c67950",
          "blockNumber": "0x2cef092",
          "blockTimestamp": "0x69bc9dde",
          "transactionHash": "0x949e279a1493c55105a876e323a99873c4c3b741056a840e267099d60c54f995",
          "transactionIndex": "0x7",
          "logIndex": "0xd",
          "removed": false
        },
        {
          "address": "0x944d768ad5cf410260f8438905d6921b3fa45672",
          "topics": [
            "0xddf252ad1be2c89b69c2b068fc378daa952ba7f163c4a11628f55a4df523b3ef",
            "0x00000000000000000000000000b036b58a818b1bc34d502d3fe730db729e62ac",
            "0x000000000000000000000000eeb3e0999d01f0d1ed465513e414725a357f6ae4"
          ],
          "data": "0x00000000000000000000000000000000000000000000038b1c932adec69ee6ef",
          "blockHash": "0x4a6b50b2b3132df2b11783675b21c19421bc4bd0f88be94e0f025fe390c67950",
          "blockNumber": "0x2cef092",
          "blockTimestamp": "0x69bc9dde",
          "transactionHash": "0x949e279a1493c55105a876e323a99873c4c3b741056a840e267099d60c54f995",
          "transactionIndex": "0x7",
          "logIndex": "0xe",
          "removed": false
        }
      ],
      "logsBloom": "0x00000000000000000000000000000000000000000000080100000002080000000000000000000000010000000000100000000000041000000000000000002020000000000000010000000008000000000000000002000020004000000000000020000000020000000000000000004880000000000000000000000010000000000000000000000000000000000008000000000000000000000000000000000000000000000000000000010001000000010000000000000060000000000020000000000102000000000000000000000000000000000008000000000000000020040004004000000000004000000000000000000000000002000000080000000010",
      "type": "0x2",
      "transactionHash": "0x949e279a1493c55105a876e323a99873c4c3b741056a840e267099d60c54f995",
      "transactionIndex": "0x7",
      "blockHash": "0x4a6b50b2b3132df2b11783675b21c19421bc4bd0f88be94e0f025fe390c67950",
      "blockNumber": "0x2cef092",
      "gasUsed": "0x291c6",
      "effectiveGasPrice": "0x7a121",
      "blobGasUsed": "0x12d90",
      "from": "0xeeb3e0999d01f0d1ed465513e414725a357f6ae4",
      "to": "0x9140a78c1a137c7ff1c151ec8231272af78a99a4",
      "contractAddress": null,
      "daFootprintGasScalar": "0x190",
      "l1BaseFeeScalar": "0x7d0",
      "l1BlobBaseFee": "0x1",
      "l1BlobBaseFeeScalar": "0xdbba0",
      "l1Fee": "0xe5",
      "l1GasPrice": "0x9",
      "l1GasUsed": "0xc14"
    }
  ],
  "libraries": [],
  "pending": [],
  "returns": {},
  "timestamp": 1773968863460,
  "chain": 1301,
  "commit": "b930a91"
}