{
  "transactions": [
    {
      "hash": "0xf65cf7d5e8aaef164e1993d196e735852b8abd19c2a95fa0ba86faea48da7f09",
      "transactionType": "CALL",
      "contractName": null,
      "contractAddress": "0x944d768ad5cf410260f8438905d6921b3fa45672",
      "function": "approve(address,uint256)",
      "arguments": [
        "0x9140a78c1A137c7fF1c151EC8231272aF78a99A4",
        "115792089237316195423570985008687907853269984665640564039457584007913129639935"
      ],
      "transaction": {
        "from": "0xeeb3e0999d01f0d1ed465513e414725a357f6ae4",
        "to": "0x944d768ad5cf410260f8438905d6921b3fa45672",
        "gas": "0xfaee",
        "value": "0x0",
        "input": "0x095ea7b30000000000000000000000009140a78c1a137c7ff1c151ec8231272af78a99a4ffffffffffffffffffffffffffffffffffffffffffffffffffffffffffffffff",
        "nonce": "0x53",
        "chainId": "0x515"
      },
      "additionalContracts": [],
      "isFixedGasLimit": false
    },
    {
      "hash": "0xc170912713e9dd25967f8676b3fee6ee67f084e63f11e587ccafe9c34a7e6bac",
      "transactionType": "CALL",
      "contractName": null,
      "contractAddress": "0x998af61cd0525b30c643308642df3f19634ca28c",
      "function": "approve(address,uint256)",
      "arguments": [
        "0x9140a78c1A137c7fF1c151EC8231272aF78a99A4",
        "115792089237316195423570985008687907853269984665640564039457584007913129639935"
      ],
      "transaction": {
        "from": "0xeeb3e0999d01f0d1ed465513e414725a357f6ae4",
        "to": "0x998af61cd0525b30c643308642df3f19634ca28c",
        "gas": "0xfaee",
        "value": "0x0",
        "input": "0x095ea7b30000000000000000000000009140a78c1a137c7ff1c151ec8231272af78a99a4ffffffffffffffffffffffffffffffffffffffffffffffffffffffffffffffff",
        "nonce": "0x54",
        "chainId": "0x515"
      },
      "additionalContracts": [],
      "isFixedGasLimit": false
    },
    {
      "hash": "0x798f32be352818c7267f8647bcc03cc9fc3d6fedebd7617b1fd947d1a6147ece",
      "transactionType": "CALL",
      "contractName": null,
      "contractAddress": "0x9140a78c1a137c7ff1c151ec8231272af78a99a4",
      "function": "swap((address,address,uint24,int24,address),(bool,int256,uint160),(bool,bool),bytes)",
      "arguments": [
        "(0x944D768aD5Cf410260F8438905d6921B3FA45672, 0x998AF61cD0525b30c643308642Df3F19634ca28C, 0, 32767, 0x5dF0562d0f9FA211c3A10A7032026B4186a4bFFF)",
        "(true, -1000000000000000000000, 4295128740)",
        "(false, false)",
        "0x000000000000000000000000eeb3e0999d01f0d1ed465513e414725a357f6ae4"
      ],
      "transaction": {
        "from": "0xeeb3e0999d01f0d1ed465513e414725a357f6ae4",
        "to": "0x9140a78c1a137c7ff1c151ec8231272af78a99a4",
        "gas": "0x4590f",
        "value": "0x0",
        "input": "0x2229d0b4000000000000000000000000944d768ad5cf410260f8438905d6921b3fa45672000000000000000000000000998af61cd0525b30c643308642df3f19634ca28c00000000000000000000000000000000000000000000000000000000000000000000000000000000000000000000000000000000000000000000000000007fff0000000000000000000000005df0562d0f9fa211c3a10a7032026b4186a4bfff0000000000000000000000000000000000000000000000000000000000000001ffffffffffffffffffffffffffffffffffffffffffffffc9ca36523a2160000000000000000000000000000000000000000000000000000000000001000276a40000000000000000000000000000000000000000000000000000000000000000000000000000000000000000000000000000000000000000000000000000000000000000000000000000000000000000000000000000000000000000000001600000000000000000000000000000000000000000000000000000000000000020000000000000000000000000eeb3e0999d01f0d1ed465513e414725a357f6ae4",
        "nonce": "0x55",
        "chainId": "0x515"
      },
      "additionalContracts": [],
      "isFixedGasLimit": false
    },
    {
      "hash": "0xd76728785b261c298567a59df8184daea07727bf3ac010697dd0297e96914506",
      "transactionType": "CALL",
      "contractName": null,
      "contractAddress": "0x9140a78c1a137c7ff1c151ec8231272af78a99a4",
      "function": "swap((address,address,uint24,int24,address),(bool,int256,uint160),(bool,bool),bytes)",
      "arguments": [
        "(0x944D768aD5Cf410260F8438905d6921B3FA45672, 0x998AF61cD0525b30c643308642Df3F19634ca28C, 0, 32767, 0x5dF0562d0f9FA211c3A10A7032026B4186a4bFFF)",
        "(true, -10000000000000000000000, 4295128740)",
        "(false, false)",
        "0x000000000000000000000000eeb3e0999d01f0d1ed465513e414725a357f6ae4"
      ],
      "transaction": {
        "from": "0xeeb3e0999d01f0d1ed465513e414725a357f6ae4",
        "to": "0x9140a78c1a137c7ff1c151ec8231272af78a99a4",
        "gas": "0x3c3f0",
        "value": "0x0",
        "input": "0x2229d0b4000000000000000000000000944d768ad5cf410260f8438905d6921b3fa45672000000000000000000000000998af61cd0525b30c643308642df3f19634ca28c00000000000000000000000000000000000000000000000000000000000000000000000000000000000000000000000000000000000000000000000000007fff0000000000000000000000005df0562d0f9fa211c3a10a7032026b4186a4bfff0000000000000000000000000000000000000000000000000000000000000001fffffffffffffffffffffffffffffffffffffffffffffde1e61f36454dc0000000000000000000000000000000000000000000000000000000000001000276a40000000000000000000000000000000000000000000000000000000000000000000000000000000000000000000000000000000000000000000000000000000000000000000000000000000000000000000000000000000000000000000001600000000000000000000000000000000000000000000000000000000000000020000000000000000000000000eeb3e0999d01f0d1ed465513e414725a357f6ae4",
        "nonce": "0x56",
        "chainId": "0x515"
      },
      "additionalContracts": [],
      "isFixedGasLimit": false
    },
    {
      "hash": "0x63fe15f38ba2283024fdc534f59121b14d5a548c5ea910be4b45866accdacdc0",
      "transactionType": "CALL",
      "contractName": null,
      "contractAddress": "0x9140a78c1a137c7ff1c151ec8231272af78a99a4",
      "function": "swap((address,address,uint24,int24,address),(bool,int256,uint160),(bool,bool),bytes)",
      "arguments": [
        "(0x944D768aD5Cf410260F8438905d6921B3FA45672, 0x998AF61cD0525b30c643308642Df3F19634ca28C, 0, 32767, 0x5dF0562d0f9FA211c3A10A7032026B4186a4bFFF)",
        "(false, -50000000000000000000000, 1461446703485210103287273052203988822378723970341)",
        "(false, false)",
        "0x000000000000000000000000eeb3e0999d01f0d1ed465513e414725a357f6ae4"
      ],
      "transaction": {
        "from": "0xeeb3e0999d01f0d1ed465513e414725a357f6ae4",
        "to": "0x9140a78c1a137c7ff1c151ec8231272af78a99a4",
        "gas": "0x38d10",
        "value": "0x0",
        "input": "0x2229d0b4000000000000000000000000944d768ad5cf410260f8438905d6921b3fa45672000000000000000000000000998af61cd0525b30c643308642df3f19634ca28c00000000000000000000000000000000000000000000000000000000000000000000000000000000000000000000000000000000000000000000000000007fff0000000000000000000000005df0562d0f9fa211c3a10a7032026b4186a4bfff0000000000000000000000000000000000000000000000000000000000000000fffffffffffffffffffffffffffffffffffffffffffff5697e9c0f5a84c00000000000000000000000000000fffd8963efd1fc6a506488495d951d5263988d250000000000000000000000000000000000000000000000000000000000000000000000000000000000000000000000000000000000000000000000000000000000000000000000000000000000000000000000000000000000000000000001600000000000000000000000000000000000000000000000000000000000000020000000000000000000000000eeb3e0999d01f0d1ed465513e414725a357f6ae4",
        "nonce": "0x57",
        "chainId": "0x515"
      },
      "additionalContracts": [],
      "isFixedGasLimit": false
    }
  ],
  "receipts": [
    {
      "status": "0x1",
      "cumulativeGasUsed": "0x49fca",
      "logs": [
        {
          "address": "0x944d768ad5cf410260f8438905d6921b3fa45672",
          "topics": [
            "0x8c5be1e5ebec7d5bd14f71427d1e84f3dd0314c0f7b2291e5b200ac8c7c3b925",
            "0x000000000000000000000000eeb3e0999d01f0d1ed465513e414725a357f6ae4",
            "0x0000000000000000000000009140a78c1a137c7ff1c151ec8231272af78a99a4"
          ],
          "data": "0xffffffffffffffffffffffffffffffffffffffffffffffffffffffffffffffff",
          "blockHash": "0x6ce6ba578a4d70c0a143f64e6ec53ea60754a382eb8453135e3a61d781883065",
          "blockNumber": "0x2ce9fa0",
          "blockTimestamp": "0x69bc4cec",
          "transactionHash": "0xf65cf7d5e8aaef164e1993d196e735852b8abd19c2a95fa0ba86faea48da7f09",
          "transactionIndex": "0x4",
          "logIndex": "0x2",
          "removed": false
        }
      ],
      "logsBloom": "0x00000000000000000000000000000000000000000000000000000002080000000000000000000000000000000000000000000000000000000000000000200020000000000000000000000000000000000000000000000000004000000000000000000000000000000000000000000080000000000000000000000000000000000000000000000000000000000000000000000000000000000000000000000000020000000000000000010000000000000000000000000000000000000000000000000100000000000000000000000000000000000000000000000000000000000014004000000000000000000000000000000000000000000000000000000000",
      "type": "0x2",
      "transactionHash": "0xf65cf7d5e8aaef164e1993d196e735852b8abd19c2a95fa0ba86faea48da7f09",
      "transactionIndex": "0x4",
      "blockHash": "0x6ce6ba578a4d70c0a143f64e6ec53ea60754a382eb8453135e3a61d781883065",
      "blockNumber": "0x2ce9fa0",
      "gasUsed": "0xb5ac",
      "effectiveGasPrice": "0x7a121",
      "blobGasUsed": "0x9c40",
      "from": "0xeeb3e0999d01f0d1ed465513e414725a357f6ae4",
      "to": "0x944d768ad5cf410260f8438905d6921b3fa45672",
      "contractAddress": null,
      "daFootprintGasScalar": "0x190",
      "l1BaseFeeScalar": "0x7d0",
      "l1BlobBaseFee": "0x1",
      "l1BlobBaseFeeScalar": "0xdbba0",
      "l1Fee": "0x76",
      "l1GasPrice": "0x9",
      "l1GasUsed": "0x640"
    },
    {
      "status": "0x1",
      "cumulativeGasUsed": "0x55576",
      "logs": [
        {
          "address": "0x998af61cd0525b30c643308642df3f19634ca28c",
          "topics": [
            "0x8c5be1e5ebec7d5bd14f71427d1e84f3dd0314c0f7b2291e5b200ac8c7c3b925",
            "0x000000000000000000000000eeb3e0999d01f0d1ed465513e414725a357f6ae4",
            "0x0000000000000000000000009140a78c1a137c7ff1c151ec8231272af78a99a4"
          ],
          "data": "0xffffffffffffffffffffffffffffffffffffffffffffffffffffffffffffffff",
          "blockHash": "0x6ce6ba578a4d70c0a143f64e6ec53ea60754a382eb8453135e3a61d781883065",
          "blockNumber": "0x2ce9fa0",
          "blockTimestamp": "0x69bc4cec",
          "transactionHash": "0xd76728785b261c298567a59df8184daea07727bf3ac010697dd0297e96914506",
          "transactionIndex": "0x5",
          "logIndex": "0x3",
          "removed": false
        }
      ],
      "logsBloom": "0x00000000000000000000000000000000000000000000000000000000080000000000000000000000010000000000000000000000000000000000000000200020000000000000000000000000000000000000000000000000004000000000000020000000000000000000000000000080000000000000000000000000000000000000000000000000000000000000000000000000000000000000000000000000020000000000000000010000000000010000000000000000000000000000000000000100000000000000000000000000000000000000000000000000000000000010000000000000000000000000000000000000000000000000000000000000",
      "type": "0x2",
      "transactionHash": "0xd76728785b261c298567a59df8184daea07727bf3ac010697dd0297e96914506",
      "transactionIndex": "0x5",
      "blockHash": "0x6ce6ba578a4d70c0a143f64e6ec53ea60754a382eb8453135e3a61d781883065",
      "blockNumber": "0x2ce9fa0",
      "gasUsed": "0xb5ac",
      "effectiveGasPrice": "0x7a121",
      "blobGasUsed": "0x9c40",
      "from": "0xeeb3e0999d01f0d1ed465513e414725a357f6ae4",
      "to": "0x998af61cd0525b30c643308642df3f19634ca28c",
      "contractAddress": null,
      "daFootprintGasScalar": "0x190",
      "l1BaseFeeScalar": "0x7d0",
      "l1BlobBaseFee": "0x1",
      "l1BlobBaseFeeScalar": "0xdbba0",
      "l1Fee": "0x76",
      "l1GasPrice": "0x9",
      "l1GasUsed": "0x640"
    },
    {
      "status": "0x1",
      "cumulativeGasUsed": "0x84e87",
      "logs": [
        {
          "address": "0x00b036b58a818b1bc34d502d3fe730db729e62ac",
          "topics": [
            "0x40e9cecb9f5f1f1c5b9c97dec2917b7ee92e57ba5563708daca94dd84ad7112f",
            "0xc622d94e3d7a976e145d4491eddc5e869cb4843f75ddc733dd030f3c3458b397",
            "0x0000000000000000000000009140a78c1a137c7ff1c151ec8231272af78a99a4"
          ],
          "data": "0xffffffffffffffffffffffffffffffffffffffffffffffc9ca36523a2160000000000000000000000000000000000000000000000000003525aca0538ef737370000000000000000000000000000000000000000fafafafafafafafafafafafb000000000000000000000000000000000000000000000a968163f0a57b400000fffffffffffffffffffffffffffffffffffffffffffffffffffffffffffffe730000000000000000000000000000000000000000000000000000000000000000",
          "blockHash": "0x6ce6ba578a4d70c0a143f64e6ec53ea60754a382eb8453135e3a61d781883065",
          "blockNumber": "0x2ce9fa0",
          "blockTimestamp": "0x69bc4cec",
          "transactionHash": "0x798f32be352818c7267f8647bcc03cc9fc3d6fedebd7617b1fd947d1a6147ece",
          "transactionIndex": "0x6",
          "logIndex": "0x4",
          "removed": false
        },
        {
          "address": "0x4197c1cea5f404bc586387768151b4cc2f8d8040",
          "topics": [
            "0xc3d58168c5ae7397731d063d5bbf3d657854427343f4c083240f7aacaa2d0f62",
            "0x0000000000000000000000005df0562d0f9fa211c3a10a7032026b4186a4bfff",
            "0x0000000000000000000000000000000000000000000000000000000000000000",
            "0x000000000000000000000000eeb3e0999d01f0d1ed465513e414725a357f6ae4"
          ],
          "data": "0xc622d94e3d7a976e145d4491eddc5e869cb4843f75ddc733dd030f3c3458b39700000000000000000000000000000000000000000000000ad78ebc5ac6200000",
          "blockHash": "0x6ce6ba578a4d70c0a143f64e6ec53ea60754a382eb8453135e3a61d781883065",
          "blockNumber": "0x2ce9fa0",
          "blockTimestamp": "0x69bc4cec",
          "transactionHash": "0x798f32be352818c7267f8647bcc03cc9fc3d6fedebd7617b1fd947d1a6147ece",
          "transactionIndex": "0x6",
          "logIndex": "0x5",
          "removed": false
        },
        {
          "address": "0x944d768ad5cf410260f8438905d6921b3fa45672",
          "topics": [
            "0xddf252ad1be2c89b69c2b068fc378daa952ba7f163c4a11628f55a4df523b3ef",
            "0x000000000000000000000000eeb3e0999d01f0d1ed465513e414725a357f6ae4",
            "0x00000000000000000000000000b036b58a818b1bc34d502d3fe730db729e62ac"
          ],
          "data": "0x00000000000000000000000000000000000000000000003635c9adc5dea00000",
          "blockHash": "0x6ce6ba578a4d70c0a143f64e6ec53ea60754a382eb8453135e3a61d781883065",
          "blockNumber": "0x2ce9fa0",
          "blockTimestamp": "0x69bc4cec",
          "transactionHash": "0x798f32be352818c7267f8647bcc03cc9fc3d6fedebd7617b1fd947d1a6147ece",
          "transactionIndex": "0x6",
          "logIndex": "0x6",
          "removed": false
        },
        {
          "address": "0x998af61cd0525b30c643308642df3f19634ca28c",
          "topics": [
            "0xddf252ad1be2c89b69c2b068fc378daa952ba7f163c4a11628f55a4df523b3ef",
            "0x00000000000000000000000000b036b58a818b1bc34d502d3fe730db729e62ac",
            "0x000000000000000000000000eeb3e0999d01f0d1ed465513e414725a357f6ae4"
          ],
          "data": "0x00000000000000000000000000000000000000000000003525aca0538ef73737",
          "blockHash": "0x6ce6ba578a4d70c0a143f64e6ec53ea60754a382eb8453135e3a61d781883065",
          "blockNumber": "0x2ce9fa0",
          "blockTimestamp": "0x69bc4cec",
          "transactionHash": "0x798f32be352818c7267f8647bcc03cc9fc3d6fedebd7617b1fd947d1a6147ece",
          "transactionIndex": "0x6",
          "logIndex": "0x7",
          "removed": false
        }
      ],
      "logsBloom": "0x00000000000000000000000000000000000000000000080100000002080000000000000000000000010000000000100000000000041000000000000000002020000000000000010000000008000000000000000002000020004000000000000020000000020000000000000000004880000000000000000000000010000000000000000000000000000000000008000000000000000000000000000000000000000000000000000000010001000000010000000000000060000000000020000000000102000000000000000000000000000000000008000000000000000020040004004000000000004000000000000000000000000002000000080000000010",
      "type": "0x2",
      "transactionHash": "0x798f32be352818c7267f8647bcc03cc9fc3d6fedebd7617b1fd947d1a6147ece",
      "transactionIndex": "0x6",
      "blockHash": "0x6ce6ba578a4d70c0a143f64e6ec53ea60754a382eb8453135e3a61d781883065",
      "blockNumber": "0x2ce9fa0",
      "gasUsed": "0x2f911",
      "effectiveGasPrice": "0x7a121",
      "blobGasUsed": "0x11f80",
      "from": "0xeeb3e0999d01f0d1ed465513e414725a357f6ae4",
      "to": "0x9140a78c1a137c7ff1c151ec8231272af78a99a4",
      "contractAddress": null,
      "daFootprintGasScalar": "0x190",
      "l1BaseFeeScalar": "0x7d0",
      "l1BlobBaseFee": "0x1",
      "l1BlobBaseFeeScalar": "0xdbba0",
      "l1Fee": "0xdb",
      "l1GasPrice": "0x9",
      "l1GasUsed": "0xb8f"
    },
    {
      "status": "0x1",
      "cumulativeGasUsed": "0xae1a2",
      "logs": [
        {
          "address": "0x00b036b58a818b1bc34d502d3fe730db729e62ac",
          "topics": [
            "0x40e9cecb9f5f1f1c5b9c97dec2917b7ee92e57ba5563708daca94dd84ad7112f",
            "0xc622d94e3d7a976e145d4491eddc5e869cb4843f75ddc733dd030f3c3458b397",
            "0x0000000000000000000000009140a78c1a137c7ff1c151ec8231272af78a99a4"
          ],
          "data": "0xfffffffffffffffffffffffffffffffffffffffffffffde1e61f36454dc000000000000000000000000000000000000000000000000001b3a1ebb0d6df6410200000000000000000000000000000000000000000d1d60864b8a7de6d1d60864c000000000000000000000000000000000000000000000a968163f0a57b400000fffffffffffffffffffffffffffffffffffffffffffffffffffffffffffff0760000000000000000000000000000000000000000000000000000000000000000",
          "blockHash": "0x6ce6ba578a4d70c0a143f64e6ec53ea60754a382eb8453135e3a61d781883065",
          "blockNumber": "0x2ce9fa0",
          "blockTimestamp": "0x69bc4cec",
          "transactionHash": "0x63fe15f38ba2283024fdc534f59121b14d5a548c5ea910be4b45866accdacdc0",
          "transactionIndex": "0x7",
          "logIndex": "0x8",
          "removed": false
        },
        {
          "address": "0x4197c1cea5f404bc586387768151b4cc2f8d8040",
          "topics": [
            "0xc3d58168c5ae7397731d063d5bbf3d657854427343f4c083240f7aacaa2d0f62",
            "0x0000000000000000000000005df0562d0f9fa211c3a10a7032026b4186a4bfff",
            "0x0000000000000000000000000000000000000000000000000000000000000000",
            "0x000000000000000000000000eeb3e0999d01f0d1ed465513e414725a357f6ae4"
          ],
          "data": "0xc622d94e3d7a976e145d4491eddc5e869cb4843f75ddc733dd030f3c3458b39700000000000000000000000000000000000000000000006c6b935b8bbd400000",
          "blockHash": "0x6ce6ba578a4d70c0a143f64e6ec53ea60754a382eb8453135e3a61d781883065",
          "blockNumber": "0x2ce9fa0",
          "blockTimestamp": "0x69bc4cec",
          "transactionHash": "0x63fe15f38ba2283024fdc534f59121b14d5a548c5ea910be4b45866accdacdc0",
          "transactionIndex": "0x7",
          "logIndex": "0x9",
          "removed": false
        },
        {
          "address": "0x944d768ad5cf410260f8438905d6921b3fa45672",
          "topics": [
            "0xddf252ad1be2c89b69c2b068fc378daa952ba7f163c4a11628f55a4df523b3ef",
            "0x000000000000000000000000eeb3e0999d01f0d1ed465513e414725a357f6ae4",
            "0x00000000000000000000000000b036b58a818b1bc34d502d3fe730db729e62ac"
          ],
          "data": "0x00000000000000000000000000000000000000000000021e19e0c9bab2400000",
          "blockHash": "0x6ce6ba578a4d70c0a143f64e6ec53ea60754a382eb8453135e3a61d781883065",
          "blockNumber": "0x2ce9fa0",
          "blockTimestamp": "0x69bc4cec",
          "transactionHash": "0x63fe15f38ba2283024fdc534f59121b14d5a548c5ea910be4b45866accdacdc0",
          "transactionIndex": "0x7",
          "logIndex": "0xa",
          "removed": false
        },
        {
          "address": "0x998af61cd0525b30c643308642df3f19634ca28c",
          "topics": [
            "0xddf252ad1be2c89b69c2b068fc378daa952ba7f163c4a11628f55a4df523b3ef",
            "0x00000000000000000000000000b036b58a818b1bc34d502d3fe730db729e62ac",
            "0x000000000000000000000000eeb3e0999d01f0d1ed465513e414725a357f6ae4"
          ],
          "data": "0x0000000000000000000000000000000000000000000001b3a1ebb0d6df641020",
          "blockHash": "0x6ce6ba578a4d70c0a143f64e6ec53ea60754a382eb8453135e3a61d781883065",
          "blockNumber": "0x2ce9fa0",
          "blockTimestamp": "0x69bc4cec",
          "transactionHash": "0x63fe15f38ba2283024fdc534f59121b14d5a548c5ea910be4b45866accdacdc0",
          "transactionIndex": "0x7",
          "logIndex": "0xb",
          "removed": false
        }
      ],
      "logsBloom": "0x00000000000000000000000000000000000000000000080100000002080000000000000000000000010000000000100000000000041000000000000000002020000000000000010000000008000000000000000002000020004000000000000020000000020000000000000000004880000000000000000000000010000000000000000000000000000000000008000000000000000000000000000000000000000000000000000000010001000000010000000000000060000000000020000000000102000000000000000000000000000000000008000000000000000020040004004000000000004000000000000000000000000002000000080000000010",
      "type": "0x2",
      "transactionHash": "0x63fe15f38ba2283024fdc534f59121b14d5a548c5ea910be4b45866accdacdc0",
      "transactionIndex": "0x7",
      "blockHash": "0x6ce6ba578a4d70c0a143f64e6ec53ea60754a382eb8453135e3a61d781883065",
      "blockNumber": "0x2ce9fa0",
      "gasUsed": "0x2931b",
      "effectiveGasPrice": "0x7a121",
      "blobGasUsed": "0x11df0",
      "from": "0xeeb3e0999d01f0d1ed465513e414725a357f6ae4",
      "to": "0x9140a78c1a137c7ff1c151ec8231272af78a99a4",
      "contractAddress": null,
      "daFootprintGasScalar": "0x190",
      "l1BaseFeeScalar": "0x7d0",
      "l1BlobBaseFee": "0x1",
      "l1BlobBaseFeeScalar": "0xdbba0",
      "l1Fee": "0xd9",
      "l1GasPrice": "0x9",
      "l1GasUsed": "0xb74"
    },
    {
      "status": "0x1",
      "cumulativeGasUsed": "0xd73c8",
      "logs": [
        {
          "address": "0x00b036b58a818b1bc34d502d3fe730db729e62ac",
          "topics": [
            "0x40e9cecb9f5f1f1c5b9c97dec2917b7ee92e57ba5563708daca94dd84ad7112f",
            "0xc622d94e3d7a976e145d4491eddc5e869cb4843f75ddc733dd030f3c3458b397",
            "0x0000000000000000000000009140a78c1a137c7ff1c151ec8231272af78a99a4"
          ],
          "data": "0x0000000000000000000000000000000000000000000007194274504c42a0939afffffffffffffffffffffffffffffffffffffffffffff5697e9c0f5a84c000000000000000000000000000000000000000000001d1d60864b8a7de6d1d60864c000000000000000000000000000000000000000000000a968163f0a57b4000000000000000000000000000000000000000000000000000000000000000002ec50000000000000000000000000000000000000000000000000000000000000000",
          "blockHash": "0x6ce6ba578a4d70c0a143f64e6ec53ea60754a382eb8453135e3a61d781883065",
          "blockNumber": "0x2ce9fa0",
          "blockTimestamp": "0x69bc4cec",
          "transactionHash": "0xc170912713e9dd25967f8676b3fee6ee67f084e63f11e587ccafe9c34a7e6bac",
          "transactionIndex": "0x8",
          "logIndex": "0xc",
          "removed": false
        },
        {
          "address": "0x4197c1cea5f404bc586387768151b4cc2f8d8040",
          "topics": [
            "0xc3d58168c5ae7397731d063d5bbf3d657854427343f4c083240f7aacaa2d0f62",
            "0x0000000000000000000000005df0562d0f9fa211c3a10a7032026b4186a4bfff",
            "0x0000000000000000000000000000000000000000000000000000000000000000",
            "0x000000000000000000000000eeb3e0999d01f0d1ed465513e414725a357f6ae4"
          ],
          "data": "0xc622d94e3d7a976e145d4491eddc5e869cb4843f75ddc733dd030f3c3458b3973333333333333333333333333333333333333333333331c7bf82565725dfe27a",
          "blockHash": "0x6ce6ba578a4d70c0a143f64e6ec53ea60754a382eb8453135e3a61d781883065",
          "blockNumber": "0x2ce9fa0",
          "blockTimestamp": "0x69bc4cec",
          "transactionHash": "0xc170912713e9dd25967f8676b3fee6ee67f084e63f11e587ccafe9c34a7e6bac",
          "transactionIndex": "0x8",
          "logIndex": "0xd",
          "removed": false
        },
        {
          "address": "0x998af61cd0525b30c643308642df3f19634ca28c",
          "topics": [
            "0xddf252ad1be2c89b69c2b068fc378daa952ba7f163c4a11628f55a4df523b3ef",
            "0x000000000000000000000000eeb3e0999d01f0d1ed465513e414725a357f6ae4",
            "0x00000000000000000000000000b036b58a818b1bc34d502d3fe730db729e62ac"
          ],
          "data": "0x000000000000000000000000000000000000000000000a968163f0a57b400000",
          "blockHash": "0x6ce6ba578a4d70c0a143f64e6ec53ea60754a382eb8453135e3a61d781883065",
          "blockNumber": "0x2ce9fa0",
          "blockTimestamp": "0x69bc4cec",
          "transactionHash": "0xc170912713e9dd25967f8676b3fee6ee67f084e63f11e587ccafe9c34a7e6bac",
          "transactionIndex": "0x8",
          "logIndex": "0xe",
          "removed": false
        },
        {
          "address": "0x944d768ad5cf410260f8438905d6921b3fa45672",
          "topics": [
            "0xddf252ad1be2c89b69c2b068fc378daa952ba7f163c4a11628f55a4df523b3ef",
            "0x00000000000000000000000000b036b58a818b1bc34d502d3fe730db729e62ac",
            "0x000000000000000000000000eeb3e0999d01f0d1ed465513e414725a357f6ae4"
          ],
          "data": "0x0000000000000000000000000000000000000000000007194274504c42a0939a",
          "blockHash": "0x6ce6ba578a4d70c0a143f64e6ec53ea60754a382eb8453135e3a61d781883065",
          "blockNumber": "0x2ce9fa0",
          "blockTimestamp": "0x69bc4cec",
          "transactionHash": "0xc170912713e9dd25967f8676b3fee6ee67f084e63f11e587ccafe9c34a7e6bac",
          "transactionIndex": "0x8",
          "logIndex": "0xf",
          "removed": false
        }
      ],
      "logsBloom": "0x00000000000000000000000000000000000000000000080100000002080000000000000000000000010000000000100000000000041000000000000000002020000000000000010000000008000000000000000002000020004000000000000020000000020000000000000000004880000000000000000000000010000000000000000000000000000000000008000000000000000000000000000000000000000000000000000000010001000000010000000000000060000000000020000000000102000000000000000000000000000000000008000000000000000020040004004000000000004000000000000000000000000002000000080000000010",
      "type": "0x2",
      "transactionHash": "0xc170912713e9dd25967f8676b3fee6ee67f084e63f11e587ccafe9c34a7e6bac",
      "transactionIndex": "0x8",
      "blockHash": "0x6ce6ba578a4d70c0a143f64e6ec53ea60754a382eb8453135e3a61d781883065",
      "blockNumber": "0x2ce9fa0",
      "gasUsed": "0x29226",
      "effectiveGasPrice": "0x7a121",
      "blobGasUsed": "0x12c00",
      "from": "0xeeb3e0999d01f0d1ed465513e414725a357f6ae4",
      "to": "0x9140a78c1a137c7ff1c151ec8231272af78a99a4",
      "contractAddress": null,
      "daFootprintGasScalar": "0x190",
      "l1BaseFeeScalar": "0x7d0",
      "l1BlobBaseFee": "0x1",
      "l1BlobBaseFeeScalar": "0xdbba0",
      "l1Fee": "0xe4",
      "l1GasPrice": "0x9",
      "l1GasUsed": "0xc07"
    }
  ],
  "libraries": [],
  "pending": [],
  "returns": {},
  "timestamp": 1773948141623,
  "chain": 1301,
  "commit": "b930a91"
}